:1000000079861E837185F99285B5CAF83D52007DC7
:10001000AA6B9B64595D3156414F7948E241703B70
:100020002435F62EE328E322F51C0F1730114F0B71
:100030006A0579FF78F961F330EDDDE664E0BED959
:10004000E7D2DACB91C40BBD46B549AD20A5E49CFF
:10005000CA94368DE4863A83F1844791ACB11CF2A0
:10006000994BC77C066DF364075EB556D54FFE48C5
:100070006B42F13BA735722F61295C236F1D8717F7
:10008000A911C70BE505F2FFF6F9DEF30000000049
:100090000000000000000000000000000000000060
:1000A0000000000000000000000000000000000050
:1000B0000000000000000000000000000000000040
:1000C0000000000000000000000000000000000030
:1000D0000000000000000000000000000000000020
:0C00E00000000000000000000000000014
:00000001FF
