:1000000055DACBDE7DE325D976BDC3A3AB920E8B4B
:10001000E389B58DA094629EDDA9BCB767BDE3AF4F
:10002000FC9D1893F49186984FA485B3E0C448D8FA
:100030006BEC33FFAAFD92EFA8E4E9E113E7DDF0F2
:100040007CFD7B0BB51A2B293E388F390D265810B5
:100050005E0176FAD1F8AFFA41FE31035C08880EF2
:100060002B0E79F9CDDBE4C34FB4F6AC6AAAAFAB83
:100070003AAF23B55FBC2BC423BBB6A3D28EC382D9
:10008000A280DF840C8E149A60A97DB956CC77D6F5
:1000900054CBD0BC84B59EB7B7C009CE3DDE4CF082
:1000A000C7027C16D525B12175101B0314FD95FEE2
:1000B000E7032E0C32153A1FF6286F32912CFE13EF
:1000C00086FA5CE717DD3AD844D765D898DB66DF57
:1000D0001EE540E5ECCE34B2F79BC28F718BA28C4B
:1000E000C391E79935A475B057BCF4B7DDA4B195B9
:1000F000458F78925E9B14A93DB995CB2BDFE9F330
:1001000072FD65F32CE64ADF2DE113E9F3F4960264
:100110009411F32068300E3CE830E31A5B08F5FDDB
:100120008DFA24FB63FEE3027808FB0D6B13C20912
:1001300072EDB3D1EDBDF4B200AE90ADBAAF78B40C
:1001400080BABEC274C3B7B0CB98D5879D80B68144
:100150003A88CD92F09FB8AFD8C09CD162CF82C010
:100160000FB564B26AB8EFC3F8D20AE404F7A6097F
:100170009A1D102559173A0770FDA2FCC3FF000015
:10018000000000000000000000000000000000006F
:10019000000000000000000000000000000000005F
:00000001FF
