:10000000800160F920EB90E090D960D680D540D592
:1000100070D7C0E440F66005C011501AE01F90226E
:10002000402350228020101EC01BC0193018B0166B
:1000300070151014C012E00FB00CD00BB00BE00B19
:10004000100C400C600F30137011700B700490FF97
:1000500030FC90F770F070E9E0E8B0ECC0F020F40C
:10006000A0F6D0F8B0FBD0FD30FF40FFF0FE20FF3F
:1000700020FFD0FF90FEF0FEA014F027102DE02C02
:10008000D0292028A028301F80FED0E650D9F0D2F9
:10009000F0CE60CD80CE60D240D760DC90DF90E0C3
:1000A00010E5D0E4E0DC10D2D0C990C470C460C4C4
:1000B00000C260C620D340E410F520040010801870
:1000C000B01DE01FB01F701E001D701C601CF01CD6
:1000D000501D701D301C80193017A015801580151B
:1000E0007015D014E015D019A01BD0170012700C99
:1000F0002008400510FFE0F670F120F1C0F3E0F6B3
:1001000020FA00FD30FFD000700160018000100176
:10011000F0FEF0025002B0FB8006D01A102BD03057
:10012000C033D02D0033E035B024400A10F420E76E
:10013000E0DF00DCF0DA70DD80E000E7A0EB60EDEE
:1001400040F150F6B0F500EEE0E400DBD0D640D64A
:1001500080D210CFB0D2B0DDD0EC70FC300A801568
:10016000501DA021C0227021801F401D801B901AAD
:1001700020190019301810164013900FB00D000D03
:10018000300D300D900B400D501200143012E00C69
:100190003007D004D001A0FBB0F220ECB0EB50ED62
:1001A00030F090F290F490F7B0F990FA80F8A0FA5D
:1001B000E0F580F760FB00F670ED90F6B008801671
:1001C000E023C020601E3026F028A01AD00140EAAB
:1001D00070DB50D160CB10CAF0C9D0CE60D5E0D969
:1001E000B0DB70E190E860E9C0E580DCB0D230D0EF
:1001F00090CFF0CBE0C8B0CAF0D470E490F44004E3
:100200000011801B3023D025E02660252024A02467
:1002100090237023502340235023F020601E501C55
:10022000601B601DD01C101BB01D20214025C02468
:10023000601F601A5017801520107006000010FC17
:1002400030FD80FEC0002001C003F0053004C00670
:100250008003F0FE7000600660FB30F580FA6005F8
:10026000901900257022E0216029902D6023E00B79
:1002700060F5E0E2A0D630D0A0CB60CA40CD30D44B
:1002800050D750D950DF30E410E750E5E0DA10D114
:1002900090CCF0C930C640C130C1B0C860D5F0E5DF
:1002A00080F5F002F00E7016001CC01D101DE01C41
:1002B000F01B201C601CE01CB01D001DD01B501A40
:1002C0008017D017B0184017A016D017B01B201FEA
:1002D000A01EB01A4015F0128010500A600240FAB9
:1002E00080F7E0F460F8E0F760FB20FF90FFB000DB
:1002F00090044001D0FB5004800430FD00F930F937
:100300005005301A60259025E026202F7035F02CFE
:10031000501A300440F070E140D820D220CE40D1B5
:1003200080D580D670D9A0DD90E210E730E4C0DA45
:1003300060D1D0CB40C8B0C2E0BCE0BBA0C030CCE4
:10034000F0DA50EA00FA500620106016B018C01912
:1003500090193019F0188018F019F01A201B601B42
:100360007018101780183019A01890178018A01D49
:10037000C0218023C01EA01B20198018B012700A53
:10038000A00310FD50FE50FD00FED000F004D0028E
:100390000008C00A10025002D00720078002F0FABD
:1003A00000F7000330168021F021C023902D403447
:1003B000802F801FC00AE0F530E6E0DB30D230CE7F
:1003C00080D140D4A0D690D940DD30E490EAC0E995
:1003D000F0E1D0D8B0D330D070CAB0C4D0C020C4FF
:1003E000D0CDA0DA30EAF0F8600690118018C01B7A
:1003F000A01C401C001C601AF019001AA019001B58
:10040000F0196016B0143014E0144013501160114C
:10041000A014701A901AC018C012F012D00FF00B6E
:10042000C00480FB60F670F520F4A0F310FAB0F879
:1004300090F93002000140FB30FDA00010031001D4
:1004400090F720F3A0FD6011801DA01F8023E02DF8
:10045000C0366035702A20176002B0F3C0E620DC99
:1004600060D840D9D0DBF0DEC0E010E430EBE0F142
:1004700070F230EB10E370DD40D890D210CB50C654
:10048000C0C650CDD0D820E7A0F54003800E60163E
:10049000C01AF01B601C901A101970187017C01742
:1004A0002019401700157012301350126012200FDF
:1004B000A00F30134018701B4017E0157013401246
:1004C000D00E400830FE80FA30F820F380F770FA42
:1004D000A0F7D0FCD0033001C0FEE0FE0002B00661
:1004E000A00480FAB0F3E0FCC00E501A501D302278
:1004F000B02C30354037802EB01B6008A0F770E775
:1005000000DBF0D430D3C0D450D6D0D680D910E0A0
:10051000A0E760E8B0E270DB60D5D0D0A0CAF0C23E
:1005200050BD70BC20C180CBC0D870E850F790049B
:10053000400E0014D0176019B0182019F0170018D9
:10054000A019801BE01A201890175016B018C0157B
:10055000C014E0120017601DD01E701D001B701922
:100560000018F016800D8005E00290FBA0F860FDF9
:1005700090FBE0F9B00060045003900000FFF00130
:1005800090079005B0F950F130F8C0081013C0166C
:10059000E01C00265030B035002F001F900D30FCBD
:1005A000D0EAB0DDD0D590D3F0D460D6A0D6F0D8C4
:1005B000D0E010E9D0EB00E820E200DDA0D870D256
:1005C000D0CAA0C4E0C1E0C400CD70D900E880F773
:1005D0006005600F2016601B601C601DE01B501B37
:1005E000B019C01C001DC01C601AC01720190018CB
:1005F0001018F01390129016501C901D401DF01A08
:10060000B017201A9016200DF008000390F940FA58
:10061000B0FB00F810F980FE6002E0025000E0FD3F
:1006200010023009400850FCD0F2A0F92008D01187
:10063000B017A01DF0260033303AA03510299019CC
:10064000C00730F650E7E0DD30DAE0DA10DBC0D981
:1006500080DBB0E210EB00EE50EB40E580E0C0DB69
:1006600030D5A0CCE0C430C010C1F0C650D110DEEF
:1006700030EE70FB6006F00DB012F014C015F015EE
:100680005012A01350131016F0142012A010B00F27
:100690001011F00FB00B9009300E001260154016CB
:1006A000801190118014C00E50099006A0FC30F605
:1006B00060F710F640F3C0F440F930FE500010FD32
:1006C00090FAE0FEB007200850FB40F240F74003EC
:1006D000C00D4014A019C0227030F0386037002ED1
:1006E000A01F800EF0FC60EDE0E160DD70DD40DD1C
:1006F00060DB00DDD0E350EC20F180EF00EBA0E602
:1007000010E240DCF0D3C0CBF0C500C520CA00D257
:10071000C0DFB0EDB0FC5007C0111016F019E01B9F
:10072000401AD019D017F019F01A701A7018401624
:10073000A0155017C0159010501030128015401B96
:10074000001AA01500197018C0126011B00B20011A
:10075000F0FBE0FA10F8D0F530F690F900FFF00069
:10076000B0FDD0F920FEF0073007E0FAE0F160F4C8
:1007700090FD8007E00D6012301C3029603280331C
:10078000F02C5020D00FF0FD00ED90E0B0DAE0D971
:1007900000D800D640D700DEB0E610ECA0EB30E980
:1007A00080E5F0E130DB80D440CBD0C580C3D0C53C
:1007B00010CD40D9D0E8A0F51004300CD01370183B
:1007C000A01AB01A301810188019F01A301A8018B0
:1007D00030154016B018E01440117010F00F3016AC
:1007E000601BF016F016101A30170015F013600C8D
:1007F000600340FF80FC50F990F620F610FA90FF5D
:10080000600200FE50F9C0FFD009900830FDA0F44E
:10081000F0F480FD0007F00BD010D01A50282032E1
:100820004035B030402600177005C0F280E400DE8D
:10083000E0DB00D9C0D580D530DCC0E480EAA0EA96
:1008400060E8F0E5B0E170DD40D460CCC0C400C326
:1008500050C2E0C830D420E160F1C0FDB0082010E3
:100860003016F019601A501820189019001BB01C8F
:100870007019A0166019001A501700163011C01117
:10088000401A901B4019D01BE01B4019001A401859
:1008900020101008A002B0FF60FC90F850F7C0F9DB
:1008A000B000D003C0FDE0F8E0FF70098008F0FE62
:1008B000F0F4A0F3F0FA9003B007400CD015B0228A
:1008C000B02DC03250302027F019C008A0F570E6D6
:1008D000B0DE40DB40D8D0D3D0D360D8F0E1A0E682
:1008E00030E950E700E5E0E110DDC0D5F0CB60C6AF
:1008F00000C0E0BF70C4C0CD70DBE0E9A0F790029B
:10090000600B40120017B016E01500165016601963
:10091000301A00167016A01860177018E014000F37
:10092000601370192019401A201DB01B301B701C59
:10093000E0199013200C20077003D0FF70FC00FA20
:10094000C0FC7004A00680FF90FC8003E00B100C3C
:10095000300370F950F7A0FD20046008100DA016B8
:100960008022302EB0345034402D7021300F30FCB6
:10097000F0EBB0E360DEB0D980D4F0D2D0D850DF55
:10098000B0E5D0E670E780E4F0E2D0DD80D5A0CE1F
:1009900050C6C0C060BE60C1F0C910D790E560F31A
:1009A00090FE400890111016B016A016F014C01654
:1009B000701BE018501690179016C018B01930121E
:1009C000900EC013A0162017201AA01AA019901A72
:1009D000B01B40196012000CE006D00240FFB0FAD4
:1009E000D0F6F0FAE003B003C0FCC0FA1002700ABF
:1009F000700B800200F930F790FCE0015005200AEE
:100A00006013A01FF02B00333034F02F6025B0149A
:100A1000400040F1C0E6D0E220DCD0D6F0D480D94E
:100A2000E0E050E6F0E940E8B0E8A0E690E1D0DA96
:100A300080D250CAB0C370C0B0C1F0C880D440E307
:100A4000A0F080FBB006700FC013E0164015301305
:100A5000D0170019F016601740151015901980175F
:100A6000B00F400F3012F012C01560188018A01798
:100A7000F018201A8017D011800BD005E00110FF6C
:100A800050F810F4B0F96001400010FAB0F880FF9F
:100A900040086009700150F870F620FAC0FE40026C
:100AA0009007800F801C202880310034403230288D
:100AB00020182005B0F4E0EBA0E4A0DE90D720D70A
:100AC00040DAC0E0B0E7A0E920EB80EBB0E950E508
:100AD00020DF50D790CFF0C770C330C400CAB0D564
:100AE00000E4A0EF50FC6008F00F60177019B0151B
:100AF000C017C01A201AD01A30198015D018A01C9F
:100B0000F016B01170111012A01360166018B01713
:100B100090179019701A60178012F00B00060004ED
:100B2000F0FE60F670F370FA8000A0FE70F8C0F777
:100B300010FF30086008700000F810F740F950FD11
:100B4000E0FFB004200D8019F025D02D4033503146
:100B5000D0293019900670F6C0ECF0E5F0DC40D7F3
:100B600030D490D790DEE0E340E660E8D0E880E75C
:100B7000D0E340DDF0D5A0CDE0C550C100C040C5F8
:100B8000C0D1B0DD60EA70F8E001B00C5015B014CF
:100B90005014001790177019301B50161015701A4A
:100BA000101BC01630130012E01110149017E0183B
:100BB0000018D018701B801B301A2015D00DB009FA
:100BC0005008200130F8B0F670FD6002300000FAE5
:100BD00000FA7001400AC009100220FB70F800FB07
:100BE00030FD90007003C00CF0171024902DE032FF
:100BF000C033902BC01C0009A0FA80F050E750DFF2
:100C000020D810D570D880DE10E3E0E610E910EAB5
:100C100000E940E500E0C0D890CF90C840C2C0BF16
:100C200070C690CF00DBC0E990F40000500DE012D8
:100C30004013901500161017901B9019D014001730
:100C4000501BA01AD016301450123012B0143018A5
:100C500030185018201AA01BB01CD01BB015E00E85
:100C6000C00C000AD00040F800F890FEB002E0FE90
:100C700070F960F9D002800950098001C0FB20F9A9
:100C800090FAF0FC00FEF002B00AD016B021F02B72
:100C9000A0321034E02D901D200CB0FD70F270E9F0
:100CA00050E0B0D700D500D8D0DC70E1D0E430E718
:100CB000A0E830E740E440DFB0D670CF50C780BE38
:100CC00030BE70C210CA10D800E410EE10FDE0086B
:100CD000800DD0118012C011D016C019E01510136C
:100CE00080165019D01810166013D010F010A014F0
:100CF000C016001700185019F01AD01D201C4015FE
:100D00002010B00F600BF00140F9B0FA9000D00451
:100D1000E0FF70FA20FCD004F00B100AA00490FD54
:100D200050FC20FD70FE80FF4003000C5016502246
:100D3000F02B0034403740304021C010D001C0F6C5
:100D400050EDB0E240DA70D760D900DE60E2E0E555
:100D500030E9F0E940E990E7E0E0C0DAB0D380C8DC
:100D600020C260C0B0C140CBB0D790E0D0ED20FD34
:100D70003006F00DC0119010701210186018101489
:100D80007013601680187017D0154012700F601025
:100D90000013F0136015F01590164019B01CE01800
:100DA000C012200FD00EC00840FE20F7D0F7E0FEA2
:100DB0006000C0FB00F6D0F9B001D0073007000199
:100DC00040FC10FA40FB00FBA0FCE0006008B01300
:100DD000A01E4029A033E036703050234013400558
:100DE000B0FA10F0F0E4E0DCA0D9A0DB70DF00E3A3
:100DF00020E890EAC0EB40ED00E960E4F0DF00D6C7
:100E000050CC30C610C1C0C370CE40D690E090EF39
:100E1000E0FB00070010C011D010C015501A3019A7
:100E20005015D0153018B019C019E017F012101174
:100E3000501200141015A016C015F016701B701D6E
:100E40000019801210123010200A20FE60F740F9BD
:100E5000B0FF8000C0F930F610F9B001C006C0053F
:100E6000300070FB60FA90F990F970FA00FE4006CD
:100E70002010401A90267031203520301023501356
:100E8000300640FBB0EF90E460DB60D8C0D900DCF6
:100E900060E190E4E0E6E0EA00EAD0E680E4D0DD5C
:100EA00010D4C0CC70C3D0BDE0C240C9E0D000DDDA
:100EB00050EA60F66004900C400D800E80143018EB
:100EC000301600143015A016C018D0191017F012E3
:100ED000F011C012E013D016D016C0168018A01E54
:100EE000401FB01A901600161015D00C2002E0FA20
:100EF000B0FEF003400340FD70F9A0FDF004900A3D
:100F00001009F0032000F0FD20FD90FC10FC000013
:100F1000C0070010B01A70273032C036303260255A
:100F20001017200A50FEC0F2D0E5B0DD20DAD0D88C
:100F3000C0DC80E0F0E2B0E7F0E900E8D0E720E5CF
:100F4000F0DCD0D6D0CC90C1E0BE30C210C620CFED
:100F5000D0DA30E600F530039009700A700EC01444
:100F6000E01600157014601480161019C019A01531
:100F70007013801190117013F01560153014B018B3
:100F8000001D201DC01760157015B013400BC0FE6A
:100F9000E0F930FDF001A0FFC0F9E0F680FA900220
:100FA000F0069005D00100FE20FC10FB30F990F90E
:100FB00030FE6004600C9017B024A0307036C03151
:100FC000A0261019D00C100220F460E8A0E0E0DAAE
:100FD00020DB50DEF0DF80E4F0E9F0E910EB10EB0D
:100FE000C0E550E1D0DA00CE60C410C2E0C190C6C6
:100FF00060CFE0D880E4E0F46002C0077009800FA1
:10100000A01460165015A014D013C016F019F018D3
:1010100050165013E0113011C014A01530145014A4
:101020005019F01D201C70180016B0175015500BE9
:1010300080FF10FB20FF4002B0FFC0F9D0F6B0FBEC
:101040001003D0064006800240FF30FE00FC90F9FD
:10105000B0FA90FEE003000CA01650246031A036D8
:10106000A033E028401CC011E00490F770EC30E29F
:10107000D0DCA0DDA0DD30E080E650E870EAD0EC06
:1010800080EA10E7B0E410DBF0CEF0C670C240C1D9
:10109000B0C6D0CDF0D590E200F4F0FF6004800837
:1010A000C00E3013D014E01450124013E015701825
:1010B000401770157012400FA0103013E01310117C
:1010C000F0125018E01B601A1016B015901700159A
:1010D000200AF0FE20FC60FF200240FFE0F850F7FD
:1010E00020FCA002B0061006A002A000E0FE90FBCB
:1010F00010FAD0FA70FDD00250097014E022402F8F
:101100004036C0328028801ED012400570F9B0EC05
:10111000A0E180DEE0DB80DB70E030E440E6D0EA96
:1011200020EBF0E800E920E580DA30D090C790C1EC
:1011300010C1E0C500CB30D240E1E0F1B0FC80014D
:101140002008800DA0121015401470128013701723
:101150003018D018D0166013E010F012D0154014DB
:10116000D0122015F01AF01D901B30180019D01B5A
:101170007017D00BE00100FF30023004A0FFE0F94F
:10118000D0F800FD60033007D0055003F001C0FE29
:10119000C0FBD0F900FA20FD6000F0063012E01F1D
:1011A000F02D8034D0305029F01FF012E00780FA83
:1011B000F0EBB0E380DEE0D9A0DB20DF30E150E6E9
:1011C000D0E990E840E9D0E970E4B0DBB0D160C884
:1011D00060C190C2B0C500C9D0D080E120F190FAC2
:1011E0000002C007700E8013C016E0140014D01562
:1011F0003018301A801AC018F013C012201580164B
:101200008014A0120016A01BC01DB01AB017501AEF
:10121000501CD016900B7001F0FE7002E00220FE10
:10122000C0F870F7A0FB4002B004B003B002700039
:1012300000FE80FA30F860F9B0FA20FEA004D00E6B
:10124000D01DC02C0032C030102B1020D015900AB9
:1012500030FBB0EEB0E660DE90DB10DD40DE00E299
:10126000E0E7E0E860E960EB60EBF0E580DE50D4B9
:1012700070C9D0C370C4A0C590C620D140E0D0EEE4
:10128000F0F89000D006700D101430154014C01303
:10129000A01550178019C01A50174013901200154E
:1012A0007015B01290115015301B701C601840174B
:1012B000C01A201C7016900AE00090FF20027001F6
:1012C00010FDC0F740F680FBC000E0029003100262
:1012D000F00090FDD0F9E0F800F920FA70FD60020E
:1012E000F00C201EE02A80317032D02B0023D01A5F
:1012F000E00CA0FEF0F320E900E170DF10DE80DFFB
:1013000000E510E990E940EBF0EDC0EC00E970E198
:10131000A0D6C0CA10C740C620C4F0C520D030DF58
:10132000F0EBF0F690FD6004500C00124013E01159
:10133000A012301340156018C01800153011A0110C
:10134000A01330133010700F8014201A701950162B
:10135000B016601A101CA015A0097001E000500220
:10136000D001E0FC00F760F780FB50001003200381
:101370006003B001D0FD00FBB0F9D0F830FB20FCD9
:101380002000000D901C10294032F031302C8026B6
:10139000701C300E300270F590E9C0E380DF70DD24
:1013A000A0DF40E530E7F0E850EB90EDB0EC30EA3C
:1013B00030E3C0D570CC80C810C650C200C5D0CEB6
:1013C00080DCA0EA80F4F0FB7003500CB0119012A6
:1013D000F012B01260134016C01990196015A012D7
:1013E000901340154014A010D0101017601B701AF5
:1013F000C017A018401DF01E5017B00BC00400030A
:101400000005D003C0FD60F9F0F820FD5001500345
:1014100060041005100240FF50FC60F950FAE0FA39
:10142000B0F970FF700B501900281030702FD02CBD
:101430005027801B2010200330F550EA20E4E0DD27
:10144000C0DB10DFB0E2E0E4E0E6A0EA00EB40EC55
:10145000C0EA00E270D560CDD0C950C420C150C3ED
:10146000E0CCA0DAF0E7B0F1F0F86002100BB00FBA
:10147000F0116012001290125016F0190019201588
:10148000C012E013D0152013600F50113017801ACE
:101490001019A0166018201E501E5016400C700423
:1014A000F0033005C00230FDB0F8A0F890FC90FFCA
:1014B00000028004B003000280FFF0FAE0F920FB94
:1014C00080F8B0F870FEA008E0176027802DD02FBC
:1014D000C02ED027001E2013500590F790EED0E5C7
:1014E00050DF80DD20E160E360E5D0E870EA50EC99
:1014F000E0EE80EDE0E2E0D720D190CBC0C560C146
:1015000040C300CCD0D990E600EFA0F7A001E009DD
:10151000E00E9011E011001170120017B019801840
:10152000A014C0122015E0152012300FF011401742
:10153000501A3018B015001AD01EB01E6017700C6B
:101540002006A00510067003C0FD40F960FA80FC7B
:1015500060FF5003B0046004200450FF00FC50FC06
:1015600010FB80F880F9C0FC90076018C024702C34
:101570006030202F70281021F014B00660FA50F06F
:1015800060E6B0DE70DE90DF70E150E4F0E6D0E7B8
:10159000E0EA10EF60EB80E1B0D7F0D0A0CAD0C392
:1015A00030BF00C020C9C0D6F0E1C0EA60F470FED0
:1015B000B006900CF00FE00F500FE011501690198C
:1015C000E0171014C013901640162012601010136C
:1015D0001019101B0018D017E01B1021D020101973
:1015E000D00E80096008E008600510FF00FC10FCC8
:1015F00030FD8001000430052007D004C0FFA0FEAC
:10160000D0FDF0FA40FA80F8B0FB8007C0166022E7
:10161000E02B5030802E902A90227016500870FDDA
:10162000F0F1A0E660E0E0DE00DFE0E0B0E440E5FD
:1016300090E6F0EB30EF30EBD0E160D940D230CB28
:1016400020C410BEB0BE20C860D490DEE0E730F207
:1016500010FC4004400B400E100EE00D7010801581
:101660003018C0157012E0132016A0141011C00E0F
:101670007013E0185019D0162017D01B9021B020FD
:10168000E018C00F000AD009B009A004F0FF20FD47
:1016900060FB20FE500110034006D00760031001DC
:1016A00080FF20FD60FCE0F9A0F6D0FA1007B0132F
:1016B0002021B02A002F902ED02B30243017800B01
:1016C000000070F300E820E250DFB0DE30E230E4EA
:1016D00020E4D0E6F0ECF0EF50EB60E370DB40D4B8
:1016E00070CD00C500BE30BF40C870D3F0DCD0E67E
:1016F000E0F070FA1004F00AE00DE00DC00DF010FB
:10170000801660181015C0130015F0161015401043
:10171000700F9014D018A0182016A016801CA021BD
:1017200060201019800FC00A300B60086004200090
:10173000D0FBD0FAB0FD90FEE00140064005F0027B
:10174000900000FEB0FC70FC40F7D0F4D0F9E0034C
:101750001011701E8028B02CC02EA02CE023601821
:10176000D00DC001E0F310EA70E3E0DEC0DFE0E29C
:10177000A0E360E3A0E740EE60F080EC30E570DDD0
:1017800060D700D030C600BF80C0D0C820D220DCD7
:1017900010E6E0EF30FAE003400B300E200EB00D03
:1017A0006012B017D0177015101430161018B0143E
:1017B000D00F6010B0149018A017F014A016A01C41
:1017C000002190200018600F500C800AD007E00420
:1017D00040FFF0FAE0FB60FB80FD50022005700442
:1017E00070031000D0FDD0FEE0FBD0F6C0F430F95D
:1017F0001002A00FA01D8026802CE02FE02D3025A8
:10180000C01B9011E00370F760ED10E5D0E020E21E
:1018100070E490E320E450E940EFA0F100EEF0E640
:1018200060E060DA50D230C760C0E0C160C870D1FB
:1018300000DBA0E420EEE0F8B002500A900DF00BBF
:10184000600D7012A016B01630146013A0160017A9
:10185000D012D00E600F1014701740159013A01501
:10186000301B2021101F90160010A00C9009A0081A
:10187000E00300FE30FCB0FAD0F900FD6001000387
:101880007004F00180FE40FE60FE80FA50F500F426
:1018900080F690FF600D201A4023F02A702F202C34
:1018A0005025401DC011A004B0F8E0ED90E4F0E038
:1018B00070E2F0E2B0E110E370E8B0EEE0F070ED5D
:1018C000D0E670E150DC80D240C7F0C080C120C7B4
:1018D000B0CF30D920E2B0ECB0F6B001100A000C65
:1018E000500BF00DD0122017A016101440157018D0
:1018F0000018E013E00F7011C0161018A016F014B5
:101900003017701EE0232020D019D013C00EE00D38
:10191000500BE005C00190FFF0FB80FC90FF4002FF
:10192000E00550062003800060012000B0FB40F776
:1019300040F460F690FFE00CE017D021402B902E91
:10194000202CD026C01E1013C00600FB80EE90E4B1
:10195000F0E180E2C0E150E0F0E170E790ED10F0DE
:1019600030EC80E6F0E2B0DC60D220C700C160C09D
:10197000F0C5E0CD70D610E080E940F4600030089A
:10198000B009000AC00C90125016D01440139015E4
:101990000018B0176012500FF011E0155017E01545
:1019A00030136016E01EA021B01FE0190013500F85
:1019B000800E300A6005A002D0FD80FBC0FBD0FD88
:1019C00080015005F0046001D000500150FF60FB21
:1019D000C0F6F0F2C0F4B0FE300A0015F020702A14
:1019E000B02DA02C702840201015200A90FD00F08A
:1019F00020E760E400E440E2D0E0A0E250E830EF0D
:101A000050F0C0ECA0E8B0E5D0DE10D420C9B0C1E1
:101A100030C190C580CC40D510DEF0E650F310FF09
:101A2000600630089008300CA01290146013C012A9
:101A30003015701860164011700FF0114015901796
:101A400000145012C017301E60216020001A90133D
:101A5000F011900E800A90071003C0FE80FC30FC4D
:101A600090FDC00220067004400260026002400047
:101A7000E0FC10F760F260F520FEB0076013202054
:101A8000F028902C002D3029D0204017800CE0FE4B
:101A900030F180E8D0E510E410E2F0DFC0E160E86A
:101AA000A0EE70EF10EC10EAD0E6E0DF50D5D0C920
:101AB000A0C2A0C180C4E0CB00D470DB20E5C0F19F
:101AC000A0FD100550065007A00CF011F013601295
:101AD0006012F015C01820155011700F40116016DB
:101AE000401660128012B017101DE021C01FF018C0
:101AF00060153012800E800B2008300370FF10FD3F
:101B000030FB00FE400390050004F0023003900219
:101B1000E00130FEE0F620F350F620FD5006D01232
:101B2000801F0028102DA02E602A0023901AD00FAD
:101B30001001A0F390EBA0E7C0E580E230E020E2E6
:101B400080E9D0EEC0EE00ED40EB10E890E120D649
:101B5000E0CAC0C310C100C4E0CA90D1D0D8F0E23E
:101B600060EF70FC900200046006E00B1011601240
:101B70007010A0114016D01690142010E00D901196
:101B8000E01500141011D0114015F01CE020D01DFC
:101B9000501990158011300EC00B3007000390FFD4
:101BA00070FBF0F9A0FDB002D0031003D002F001E9
:101BB0003002600220FDF0F530F360F5B0FA000469
:101BC0003011E01C3026A02C102E802A4024401D0D
:101BD00070111003E0F5A0EDB0E910E700E3F0DFCD
:101BE00060E370EA70EE10EF20EEE0ECC0EA40E354
:101BF00040D8A0CD70C520C270C5E0CA50D1F0D782
:101C0000B0E1B0EFB0FBA001B003D006800C5012E1
:101C10009011D010C013E0164018E0158010600F2E
:101C200090142016B014B012E0112017901E10214D
:101C3000901E801B001700139010D00CA0081005F8
:101C4000C00090FBC0FA10FF90027003A003600276
:101C50000002B003B00290FCF0F5B0F370F4A0F80D
:101C60008002700E201AF023702B902C70292025F2
:101C7000F01D2012700380F610EE70EAF0E630E1FD
:101C8000D0DE00E3E0E810ED90ED10ED30ED00EB7C
:101C900060E360D900CE50C580C230C4A0C9A0CED8
:101CA000B0D470DFE0ED00F900FF0001C004700C5B
:101CB000C00F500FB00F1012501590179013400E18
:101CC000D00FB01240146013001010106016001DE9
:101CD000F01E401EE01A801680138010800C100940
:101CE0001006B00040FBB0FB60FF3002500440041F
:101CF000C002C00310065004D0FDB0F890F540F5C6
:101D0000B0F93003A00E201A9025802C002E402C14
:101D1000202910223016C00770FA70F2F0EE30E978
:101D200040E380E100E5C0EA40EE70EE20EFF0EF26
:101D3000D0EC60E6C0DB60D060C780C350C5C0C9CE
:101D400060CD50D3D0DE10EC00F8F0FC20FF200571
:101D5000C00BF00D900E200F00118016F016B01180
:101D6000E00E800F501250145012600E001000163A
:101D7000001BF01D901DF01920166013B00F900B82
:101D80005009A005C0FE70FAF0FA50FDA0009002C4
:101D9000A0014000B002D004F00190FC70F7B0F355
:101DA00090F260F7D0FF600AC016C0228029A02BF5
:101DB000602BC0280022E016D007C0FA00F430EFF4
:101DC000C0E8A0E2F0E0A0E440EA60ECE0ED70EFF3
:101DD00010F0F0EDA0E770DDF0D1A0C870C4D0C65F
:101DE00030C930CC80D270DD30EC10F720FB20FF02
:101DF0002006400B600E000F500EE012C017901628
:101E00007012E00F3010B0137015C011000F2011C8
:101E10002016501BC01E301EC01AE017C014F00F51
:101E2000000D500BF00550FF90FB20FB50FD3001E2
:101E3000C002A000E000B0032005000280FD50F8C1
:101E400080F3A0F290F6E0FD500890154021D027D5
:101E5000F02AB02BA02960245018300950FDC0F69C
:101E6000B0F0E0E930E390E100E600EA90EC10EE3B
:101E700030F060F100F090E920E040D450CA50C743
:101E8000D0C7B0C910CC90D160DD50EC20F5C0F9BE
:101E9000E0FF8005A00BF00EA00DE00E5014D0174F
:101EA00080161013A00FB010C014D0142011300FE2
:101EB000E0106015D01A101E001DC01AB0181014C2
:101EC000B00F300E800BB00570FFE0FB30FA30FD34
:101ED0001001300170FFD00000046004300230FEB9
:101EE00060F850F390F290F510FCC0065014401FBB
:101EF000C026602A802B002BE0258019E00A000014
:101F000090F8B0F220EA80E390E2F0E520E9B0EB4F
:101F100090EDB0EF80F1A0EFF0EAC0E020D410CB5C
:101F200050C700C740C820C980CE30DC10E920F17E
:101F3000A0F7D0FC8003500A000CF00AF00DF0125C
:101F4000F01580154011300EB010E0131013D00FB3
:101F5000400EA00F5014501AD01C101CB01B80183B
:101F600090135010300F900BE005400040FB50FAEA
:101F7000C0FD0001E0FF30FF7001E0035004E0020B
:101F800090FE80F8D0F3D0F240F440FA70052012B1
:101F9000701D1025F028502B602C7026801A800CA4
:101FA000E00130FB90F340EA00E440E3A0E510E9F3
:101FB000B0EA30ED10F040F1F0F040ECA0E1A0D537
:101FC000B0CC10C850C8D0C700C7E0CE70DB00E767
:101FD00020F030F690FB0004100A700A100B900EEF
:101FE00020130017F0156011D00FC0122015101427
:101FF000A011D00FD0108016D01BE01D001FA01E16
:10200000001B6016C0149012100F000AD00310FEBF
:10201000C0FD80012003E0011002F003F005E0069E
:10202000C0050001A0FA80F6F0F380F450FAD00465
:102030001011C01C9023E027102CC02C5027001B2F
:10204000900D9003A0FC60F310EAC0E360E2C0E4EE
:1020500080E6B0E870EBB0EDE0EF80F020EBF0E070
:1020600080D560CB50C860C7E0C3B0C450CCA0D707
:10207000D0E3B0ECE0F160F990021007300880097D
:10208000A00C301210160014F00F800F8012D01325
:1020900050130011400E8010D015301A801C101FF4
:1020A000201E001AB016A0144012100F400AE002C1
:1020B00070FD20FE100180010001B00180032005A9
:1020C00020078005B00060FBF0F670F3B0F340F934
:1020D000E0023010D01AC0213027602C002EC0281A
:1020E000701CD00F3007D0FE80F5A0EB20E520E477
:1020F00030E5C0E660E980EBC0ED60F170F1B0EC76
:1021000080E340D6B0CD00CB80C7D0C300C550CB54
:10211000E0D600E310EA30F050F98001C0059007E6
:102120007008700C90128015F012B00F6010001241
:10213000E01360131010D00DB01030157018701C23
:10214000E01E601DC0191017E014A0121010A00AA4
:102150006002F0FDD0FEC0009000A000600180028F
:10216000300500072005B00020FCA0F650F3B0F2C7
:1021700010F77001000E3018601FE025A02B702EA4
:102180005028C01CC011B008B00040F610EC50E65A
:10219000B0E4E0E410E710E970EA70EE70F140F2AC
:1021A00000EF20E4B0D700D1D0CCF0C7A0C4A0C4C9
:1021B00010CB50D7A0E170E840F050F94001600624
:1021C0009007A008600D4014E01580139011801155
:1021D00070139015B0149010A00F201240153019F4
:1021E000F01D0020601EA01BD018E015D014601256
:1021F000900B8003C0FF600000015001500180017E
:10220000E0026006500790054002E0FCE0F7B0F302
:1022100030F260F6E000800C5016B01DA024702C47
:10222000D02E1029501EC013900BB00290F7B0EDC5
:1022300010E8F0E490E510E7E0E7B0EAF0ED10F127
:10224000A0F370EFE0E370D9B0D2F0CC20C8B0C3F7
:10225000D0C210CA60D5D0DD50E580EDD0F6E0FEEA
:1022600090034004D005300CD01120135011A00F62
:10227000400FF0111014B011500E200EB00F40128C
:10228000F016F01B801D801C601AE016E01460142C
:10229000C011100AB002A0FF70FFB0FF6000100074
:1022A000E0FFB0025005B006B005600270FDB0F866
:1022B00080F390F100F690FF700BB014D01BA024B7
:1022C000B02C302FB029A01F2016800E900460F98A
:1022D00030F0E0E860E6C0E6D0E660E8B0EA30ED75
:1022E00030F240F590EF20E5B0DB30D4C0CE40C9ED
:1022F000F0C2C0C220CAA0D310DCA0E350ECA0F50D
:10230000A0FE8002C002E005800C7011C012B01166
:10231000900FD00F301330149011800F200FA00FAA
:102320006012E017001C201ED01D401BC017A01615
:10233000B016C012100B60047001200010012001C3
:102340002000E0003003C00550078006100350FF56
:1023500090F9D0F390F130F540FFF0093012201AD7
:10236000E023602C502F102AA020F01860103006B7
:10237000C0FB50F170EA10E8E0E640E720E900EA2F
:1023800060ED10F4D0F560F080E7D0DDF0D6C0D17C
:1023900000CAA0C3E0C3F0CA10D310DBB0E200EB68
:1023A00090F550FE3001F0016006800C20113013D2
:1023B0008011200FE010C013E01350110010E00E48
:1023C000C00E40123017401B801DC01D501A301720
:1023D000301730175012000B0005F0004000A0002D
:1023E000C0FF20FF000000020005800660056003BA
:1023F00020FF40F920F320F020F4B0FD3007100F4B
:10240000E017E021A02B202EC028A021F0193011C8
:10241000E00780FCF0F1F0EB50E880E6B0E7F0E791
:1024200090E8D0ED20F470F540F1D0E7F0DEF0D880
:10243000B0D2C0C950C320C480C980D130D920E0F7
:1024400050E9F0F490FCC0FEF0009005200B9010D5
:1024500060120010900EF0106013B012A011001066
:10246000300E400EE0113016901AF01DC01D001AFB
:102470009017A0187017B012000C8005C001100151
:10248000A00090FF40FFB0FF60023005300610064C
:102490000004500060FA40F3F0EF80F410FDD00526
:1024A000A00D20160022B02B802D002A9023D01BD7
:1024B0001014300A20FEC0F4B0EDC0E840E8A0E8F7
:1024C000F0E6B0E820EE00F460F6B0F1D0E8D0E03D
:1024D00070DBA0D320CA40C410C430C9C0D040D7DC
:1024E000C0DD40E8E0F330FA30FD20004004900AFF
:1024F00030107011000F100F4011A0128012F01157
:10250000F00FD00D800E40117015601A501EE01CA7
:102510007019D01870192018C013E00C3006300361
:10252000B001D0002000F0FE10009002100550060F
:102530007006E004900110FB50F380F040F430FC92
:102540007004000BF014B021702A202D802A202462
:10255000D01D6016900B800020F790EE70EA20EA04
:1025600030E820E700E990EEF0F450F750F210EA7E
:1025700000E400DE30D5D0CB80C5C0C4C0C970D067
:1025800080D5C0DC80E8D0F240F9B0FCA0FFD003D9
:10259000E00A30103010D00E800F50111012B0121F
:1025A000E011700F800D100E30103014301A701DB5
:1025B000A01B10190019301920189013300C900628
:1025C000E00250017000D0FE10FE20FF7001E00319
:1025D00050056005F004B00120FAC0F2B0EF40F3FE
:1025E000F0FA1001F0073013301F7028302C7029DA
:1025F0008024501F0017400C500220F7F0EE70EBC3
:10260000C0E990E710E6F0E790EDC0F480F670F1D5
:10261000E0EA70E5D0DE00D690CC90C5E0C420CAD8
:10262000A0CE40D3D0DB30E720F1D0F7B0FB10FED6
:102630007003100B900F500F200F30105011B0127C
:10264000901390120010D00EA00ED00FE014501B6B
:10265000701DC01B301AA019D01AC0199014000E9A
:1026600000087004A002400150FFC0FE70FFA001EE
:102670002004E004100630063002D0FAC0F290EFD9
:10268000D0F3C0F980FE50067011A01D7027002BFA
:10269000B028B0251020B017E00EA00350F890F03D
:1026A000E0EC60EAD0E720E690E710EE40F550F667
:1026B000F0F1B0EC80E790E0F0D790CD20C650C6A6
:1026C00000CA30CDF0D130DBE0E5F0EFF0F620FAD3
:1026D000E0FC4003D00A300EC00E100FD00FA01047
:1026E00070126013C011E00FB00E600DB00EE01458
:1026F000601A501C701B7019001A101B801990145E
:10270000000E3008E004F002B00020FF30FE20FF91
:10271000A0011003700450068006100340FB60F215
:1027200070F0E0F310F800FDC004600FA01C7026EC
:1027300040297029C0262021E019F0103005F0F959
:10274000A0F250EE70EB80E8D0E590E7E0EE60F5A7
:1027500000F6A0F250EEF0E810E390D940CEA0C70A
:10276000F0C700CA20CC60D1D0D9B0E4F0EEE0F5DB
:1027700050F810FC5003100A300D700E400F700F0F
:10278000F01010136013F0111011E00EB00C300FA8
:10279000D014201A401CE01AC019B01AA01B301A1D
:1027A000B015F00EA00920066003A00130FF50FE16
:1027B000D0FF600190029004800680072004F0FAA8
:1027C00010F390F1A0F3F0F6D0FB3002300E701B46
:1027D000202480287029B026C021601BE01120062B
:1027E00050FBA0F320EF30ECE0E7A0E420E7A0EE00
:1027F000E0F300F590F230EE00EA20E4A0D930CE0C
:1028000090C8C0C770C860CA70CF70D790E240ED62
:10281000F0F2D0F590FA10022008800B900DE00D38
:10282000200E50104012D011D011B010500DD00B0E
:10283000100EE0135019101B001AC019C01AB01B5B
:10284000A01A7015600F500A80065004C00100FFE6
:10285000E0FE00001001C002300410070009B004BF
:1028600040FBD0F470F2B0F310F7F0F94001900D96
:10287000C019C0225028A0296027C023B01DD01342
:102880007008A0FDF0F5A0F120EE70E850E5D0E86A
:1028900040EF90F4F0F5B0F300F020EDA0E630DB6F
:1028A000B0D060CB70C910C900CBE0CEF0D680E2CA
:1028B00090ECC0F100F5E0FAB0015007600B800D1C
:1028C000600D900EF010A0116012B012F010A00D6B
:1028D000D00B300E20142019601AF019A019F01A2C
:1028E000801CE01A5016A010300BE0073005900154
:1028F000B0FF30FF200080013002C0036008300AC2
:10290000A004C0FCB0F550F3C0F400F670F8A000CD
:10291000A00C30180022F027102900280025E01E06
:102920009015300A10FF40F790F340EEE0E740E5E5
:1029300050E840EEA0F300F560F290F010EEA0E653
:1029400000DB70D190CB80C810C8D0C840CCA0D4D8
:10295000B0E0E0E960EED0F2E0F860FF4005100A78
:10296000400BD00BE00D500F5010C0113012301042
:10297000D00CC00AB00DA013F017B019401960199F
:10298000601B901CF01AE0169010F00BE008200578
:10299000C001A0FFE0FEE0FFF0007000B003A0085F
:1029A0004009B00470FC90F5E0F340F400F4B0F698
:1029B000F0FEF009C015F01FC0251028E027702593
:1029C000801FD016F00AD0FF60F9C0F440EED0E7C7
:1029D00070E5D0E730EE70F310F480F220F2A0EF53
:1029E00060E7C0DC60D300CDD0C9C0C8A0C870CB40
:1029F000C0D410E070E840EDB0F270F8C0FEC00541
:102A0000C009300BC00C800EC00F4011E0126013E3
:102A10009011400DC00BE00E5014E018501A9019A0
:102A2000A01AA01CD01DE01C2018A012700EC00A15
:102A3000D006B003B0009000E001E00020012005C6
:102A4000C009E00A200690FDA0F7F0F5B0F4C0F34D
:102A5000F0F620FEE0080015301F1025F027702842
:102A6000202660216018300CA001A0FBF0F5B0EE2C
:102A700060E860E5C0E710EEA0F280F290F210F39B
:102A8000D0EFD0E780DD20D440CD40CAF0C770C67B
:102A900090C940D3D0DD10E530EB60F0B0F5F0FC2C
:102AA000A00340075009700B900CE00D700F8011CF
:102AB0007012B00FC00B600A200DC0120017D017A3
:102AC00050185019601B301DD01B4017A012600E0B
:102AD000600A3007B00240001001F00090FFB00023
:102AE000D004E009300BE00500FE70F9E0F670F468
:102AF000A0F330F600FD9007E013901D302410285D
:102B0000F028A027B023201AF00DF00470FE00F882
:102B1000A0F0C0E920E6F0E840EF30F2D0F220F477
:102B2000C0F440F1B0E9C0DF10D6A0CF30CCA0C8CF
:102B300020C610CA40D350DC40E460EA20EF40F5E4
:102B4000D0FCB00290066009400BE00CC00DA00F55
:102B50006012E012E00F200C600AA00DE012501687
:102B6000A01710183019E01BD01DC01B301890138F
:102B7000100FE00B6007800230017001500010FF61
:102B800010004004000A000B200590FE20FAE0F639
:102B9000F0F3E0F290F400FB00069011601BB0220D
:102BA000A026E02750284024301A200F8006B0FFCE
:102BB00000F990F180E950E6C0E9B0EEE0F050F2A3
:102BC000B0F420F530F210EB00E160D770D160CDA9
:102BD000F0C7A0C5E0C9F0D1E0DAF0E2A0E860ED0E
:102BE00040F470FB400160055008900AA00B600C97
:102BF000100FF0116012900FF00AD009200DC011D3
:102C00002015C016D016B018E01BD01CD01B7018B1
:102C100030130010600CE006E002D00160012000DB
:102C2000B0FE30FFA004700A800A6005C0FF60FBA0
:102C300080F7B0F4C0F2F0F370FAF004E00F601A1D
:102C4000E021C025E028F0296025A01B8011C008E4
:102C5000E00170FBB0F250EAA0E700EB80EEB0F0CC
:102C600010F370F550F6C0F300ED80E2D0D9C0D477
:102C7000B0CEA0C800C790CAA0D1F0DA60E2A0E749
:102C800030ED20F420FB10014005C008000B600B64
:102C9000F00C900FD0126013E00F800BB00AA00D63
:102CA000F011B0156016E0168019001C801DC01CC4
:102CB0009018C014D011400D80070004A002F0014C
:102CC0006000D0FDF0FE1005600AB00980056000CC
:102CD000B0FBF0F780F490F1B0F200F94002C00DC3
:102CE0006018601FF02330289029B024201C301277
:102CF0008009300330FC60F210EA40E870EA10ED21
:102D000060EF20F2E0F400F640F4D0ECC0E260DBCB
:102D1000A0D530CE40C850C6D0C850D000D9F0DFC2
:102D200080E560EB40F270F9D0FED003B007700987
:102D3000400AB00BD00E7012C012A00E100B500A39
:102D4000B00CA0116014E0149016B018701BA01DF8
:102D5000101C501880153012F00CC0070004E0025F
:102D6000300270FF90FCA0FE100570095009D005DC
:102D7000E00080FCF0F850F430F160F270F7C00031
:102D8000800CC016501D6023B028D029C025A01D7E
:102D9000D013D00B200600FE80F3F0EBE0E940EB0F
:102DA00010EDD0EFA0F260F5E0F7F0F5D0ED10E512
:102DB00090DE70D700D0F0C900C750C9A0D070D83D
:102DC00070DFB0E4E0EA40F290F870FEE003D00774
:102DD000C009800AD00BD00FB0131013C00F300CF5
:102DE000D00A100E101210148015D0160019901C65
:102DF000501E401C001A8017C013800E0009500599
:102E00008004700370FFD0FC90FF70057009B0095A
:102E10004006A00120FE90F990F460F1B0F100F6B8
:102E200070FF100BF013301B3022A0271029A025B3
:102E3000801DE013100D300700FE50F320ECD0E9A8
:102E4000F0E9F0EB50EEA0F070F4B0F7A0F430ED44
:102E500010E620DF90D720D040C9F0C550C8B0CED2
:102E6000B0D6D0DC70E230E920F060F6B0FC500261
:102E7000600670089008900A600F80126012300F90
:102E8000E00AA00AA00DF0105013E014C015E018DD
:102E9000C01CB01D601C801A20188014100F30094F
:102EA00040060006E00320FF10FD20008005D00949
:102EB000000AB006300390FFB0FAB0F570F280F16E
:102EC000B0F540FFD0097012601A0022A027002A36
:102ED000F026A01EF015E00FA00960FF10F540EEEF
:102EE000E0EAA0EA80ECC0ED80F0C0F520F8F0F454
:102EF000B0EE00E8C0E0A0D950D120CA60C620C81A
:102F000070CE30D500DB20E100E840EEF0F440FB6D
:102F10000001D00510074007600A800E1012401211
:102F2000500EA00AC00AF00C1010D0124013E0148A
:102F30009018E01BA01C101C801A7018E014E00E02
:102F4000300910079006100370FEF0FC80FF20058A
:102F500030092009A006E003F0FFD0FA60F610F275
:102F600090F000F540FEF007C0103019C020802717
:102F7000902A5027301FE0179012700B100150F765
:102F8000E0EFF0EB20ECD0EC70ED40F1D0F660F823
:102F9000E0F540F0C0E930E370DBF0D240CB20C771
:102FA000C0C870CE70D470DAF0E010E7B0ED20F455
:102FB00050FA7001900560068007200AC00EB0121A
:102FC0006012600E900B100B200DB0107012F012FA
:102FD00030150019001C101D701C501BE019201624
:102FE000600F200A00098007A00300FF10FDE0FF2A
:102FF00070050009E0087007B004700000FC10F7CD
:10300000D0F1E0EFA0F4C0FCC005C00ED016F01E59
:10301000A026202A9026401F1019D013B00BE001E3
:1030200000F800F060EC10EC20EB20EC00F1C0F5B3
:10303000C0F760F550F060EAE0E350DC80D300CBED
:10304000E0C680C8F0CC80D280D870DE20E590EB5E
:1030500070F1F0F8D0FF9003E0040006C008200EE5
:10306000E011E010C00DD00A300AC00CD00FD01013
:10307000B0115014F017001BF01B901B301B901A5E
:10308000F015000F300BB009B0079003D0FEC0FC64
:10309000100040052008F00840087005A001A0FDC0
:1030A000E0F700F2A0F090F410FCE004900DA01501
:1030B000801EF026602AA0269020901BB015C00D1F
:1030C0005004D0F900F220EF20ED90EB00ED90F1EC
:1030D000B0F690F880F610F280EC50E6E0DE60D5B5
:1030E00090CCB0C860C9F0CCB0D200D8A0DE30E53A
:1030F000B0EA00F100F9A0FF8003E0047005300998
:10310000E00E10128011A00E500B100BC00DE00F3E
:10311000C010F011C0147018801B601C101CF01C33
:10312000B01B50162010A00CF00AC0083004A0FEFE
:1031300030FD9000D0048007100940085005B0020F
:1031400050FEC0F7F0F130F070F370FAF002000BAF
:103150000013F01C3026F028C0253021401C10162A
:10316000300FF00400FA30F330EF50EC80EAE0EB7F
:1031700090F090F570F7F0F5F0F1C0EC50E790DFCB
:1031800030D500CD70C880C8F0CB40D0F0D5C0DCC1
:1031900090E2E0E720EFC0F6B0FD10029002A0033D
:1031A0001008800DB010A010500D500AB00AF00C9D
:1031B000800E500FE010A013A017401AA01AA01BF9
:1031C000601D901BF0157010200DA00B6009F0031E
:1031D00080FE80FD7000100470070009F0070006F3
:1031E000E00320FF50F8B0F280F040F3D0F9100275
:1031F0003009E011F01CF02540288026A022801D17
:10320000E0186011B00680FCD0F550F1A0ED60EB45
:10321000F0ECD0F150F660F850F750F370EF30EA70
:1032200090E1D0D7F0CE20CAF0C960CC10D060D6E3
:10323000B0DCC0E1C0E760EE60F6D0FD5001D00127
:10324000C0034008500D0011A010400D900A300B33
:10325000E00C200EF00E20108013B0177019201A09
:10326000401CB01D701B8016E010D00DC00CD009A2
:103270009003C0FE00FEC0FF7003300750089007A7
:10328000C006800490FFC0F8F0F250F080F230F9F0
:103290004000B0062010001C402490279026A02259
:1032A000E01E601A5012C00710FE50F730F290ED89
:1032B00020EB00ED50F1B0F550F8C0F600F4A0F0AE
:1032C00000EBC0E2C0D8A0CFF0CA10CA30CB50CFBC
:1032D00050D5D0DA20E0C0E590EC40F5A0FC80FFAE
:1032E000B000F0024007A00C8010E00F800CD00A64
:1032F000100B700CA00DD00D600F5013001710189C
:10330000A019501CD01DD01B90161011B00ED00D5E
:10331000C009900300FFD0FD60FF300370069007E6
:1033200080072007F004E0FF50F910F3D0EF50F2CF
:1033300080F8D0FD8004200F301AA022C026C025BE
:10334000E0220020701B3013E008B0FF00F920F3EA
:10335000B0EDB0EBE0EC20F120F6E0F710F730F53F
:10336000E0F1C0ECB0E420DA40D190CC60CA60CB90
:1033700080CFE0D490DAD0DFB0E410EC30F5F0FB91
:1033800010FF50008002F006100D9010B00F200DBD
:10339000600BA00B200DB00D600DC00F0014701657
:1033A000D017E019D01C601E901CC016D0117010F0
:1033B000D00E200A5004E0FF00FEB0FF700350065C
:1033C0004007F007F0079005C00040FA40F3E0EF37
:1033D000C0F260F7C0FB3003700D80189021C0254B
:1033E000202510230021501C2014D009900170FAD0
:1033F00050F320EE60EB60EC00F140F500F7C0F612
:1034000020F590F200EE30E500DBD0D210CD30CACE
:1034100000CB60CEA0D360D9A0DDC0E2B0EAB0F3AB
:1034200040FAB0FD10FF20016006700C800FF00E16
:10343000B00C000BA00B200D900CC00CC00F801323
:10344000A0153017A019D01C001FA01C00172013B6
:10345000F011800F200B5005800060FE3000C0038B
:10346000000640079008C0087006800240FB90F3F9
:1034700050F170F380F600FB4002600CE017102161
:10348000E024202530247022001E5015200CF0036B
:1034900020FC50F550EFF0EB20ED60F100F550F717
:1034A00010F7F0F540F460EF70E6E0DC90D410CE59
:1034B00010CB10CB40CEC0D3A0D870DCD0E120EA36
:1034C000D0F2A0F900FD00FEB0003006000C100F95
:1034D000D00E400C200B400C800CB00B700CB00FC9
:1034E000A012B0143016D018E01C001FB01BB0168C
:1034F000B0132012B00F400B7005F0FF40FEE0FF4C
:10350000B002900470061008E007E006D00290FABE
:10351000D0F390F190F2D0F410F91000300A0016B8
:10352000F01E6023302440244023101E3016900DDE
:10353000200550FD40F670EF30EC70EDC0F0D0F497
:10354000E0F6B0F6A0F660F500F0E0E7A0DEB0D55A
:1035500040CF70CBC0CAF0CD20D340D7A0DA60E016
:1035600090E870F150F840FB60FCB0FF5005E00AB5
:10357000700ED00D900B500B700CD00B000B400C4C
:10358000300F2012001430156018501DC01E901B03
:103590006017E01410139010500C10069000D0FE2D
:1035A000700050027004D006D007B00870086003A5
:1035B00040FB10F5C0F2B0F2A0F400F8C0FE5009D4
:1035C0000015201E3022E0232025F023001FB01715
:1035D000400F2007B0FF80F7A0F050EDA0ED50F1B4
:1035E00050F5A0F650F730F8A0F6D0F1F0E9C0E0C1
:1035F00000D800D150CC60CBE0CE30D380D640DABA
:10360000D0DFF0E720F1F0F750FA10FC80FFF00473
:10361000F00A500E600DB00B400C900CB00B000B7C
:10362000400C100F001230138014C018A01D501E43
:10363000301BC017301580134011C00CF0059000EE
:1036400040FFD0FF80014004C00500071009B0080A
:103650002003A0FBB0F590F270F250F340F6D0FCDE
:1036600030073013D01B502050231025B023801F6B
:1036700050181010A0087000F0F7F0F000ED50EDB9
:1036800010F100F470F540F710F8A0F630F280EA7F
:1036900090E120D970D1E0CB20CB40CEE0D1C0D496
:1036A00070D8A0DD30E690EFB0F590F890FA00FE0B
:1036B000B003600A400D300CB00B600C100C500BC6
:1036C000B00AE00B400F90112012D0132019A01D5A
:1036D000401ED01BC0185016C014F012F00DE006AA
:1036E0008002900050009002B0049005E007A00A0C
:1036F0009009700430FD30F750F430F390F3E0F5AA
:1037000010FC0007A012901AC01F90236025C0244F
:10371000A02090194012E00A3002B0F950F2D0ED2A
:10372000A0EE60F190F380F570F770F890F750F329
:10373000B0EB40E3B0DA30D260CCD0CB10CE30D199
:1037400050D430D790DC60E570EE50F490F750F92B
:10375000D0FC50039009A00B800BD00B200C000C68
:10376000B00AF009A00B100FA010D0109013F018A1
:10377000301DD01DC01BD018501690158013C00DE1
:10378000A007100350006000A002B003E00410087E
:10379000B00AE009B004B0FD00F8A0F410F3D0F2D4
:1037A00020F490FA700510105018401E6022F0248A
:1037B00090247020301A7013A00B7003A0FA50F2FE
:1037C00050EEA0EEA0F0B0F200F5E0F680F820F8A0
:1037D000B0F3E0EC00E500DC00D380CD30CC10CEBF
:1037E00010D140D3D0D5C0DB90E430ED90F3B0F6EB
:1037F00060F860FC90030009100BD00B300CA00C9B
:10380000700CC00A000A800C700F20109010B013CA
:103810001019001DF01D501C3019B017301720145E
:10382000C00E3009C003E000700170022003E00404
:103830004008200B300A4005C0FE00F970F5C0F3C7
:1038400010F240F310FA4004700ED016F01CA021C4
:103850000025A024F020801B9014800D200580FB03
:1038600040F330EFF0EE60F080F270F4F0F6F0F834
:1038700060F840F470EED0E640DD20D420CE60CC7D
:1038800040CE00D130D2C0D4B0DA70E3F0EB60F2B9
:1038900010F5F0F620FCD002D007300A300BE00B18
:1038A000E00C300CF009000AC00C000F300FD00FF4
:1038B000A013B018A01C101E001C40199018D0179F
:1038C0008014C00FC0090004A001B0013002A002A2
:1038D00090047008700B800A000670FFD0F9E0F6C3
:1038E00000F480F1D0F260F90003300D5015F01BA8
:1038F000D0210025D024D021701C3016600FC006C6
:10390000A0FCB0F470F070EF80F010F210F420F72B
:1039100050F950F800F5D0EF10E870DE60D5D0CE49
:1039200000CDB0CE10D0D0D080D340D990E1D0EA35
:10393000C0F0E0F260F5E0FA60015006E008D0095E
:10394000500BA00C100B00098009500CD00DA00DDD
:10395000D00E60125017E01B401DF01A50191019BC
:10396000A01710156010E00980044002F001B001BA
:10397000E0017004A008600BF00A8006100050FB04
:1039800000F830F460F180F270F83002900BB01360
:10399000201B3021C02450258022601D301890113A
:1039A000800890FE70F6D0F170F020F110F270F403
:1039B000E0F7D0F920F9A0F6B0F110EAB0E0E0D6D7
:1039C00020D060CE80CF00D0E0D030D360D860E18E
:1039D00080EA90EFB0F110F580FAB000B005D007A2
:1039E0009009C00B600C800A9008F009500CF00C94
:1039F000100D500EA0110017E01B401CA01AE0197A
:103A0000F018E0179015D010500A3005B002F00100
:103A1000200140011004F007200BE00A200680007E
:103A200060FC50F8E0F3E0F070F190F780003009AE
:103A3000C011C019F01F2024F0244022301E70193C
:103A4000B0127009A0FF70F7A0F240F1F0F0B0F1F1
:103A500070F4C0F750F990F970F7D0F2A0EB10E2D3
:103A6000E0D750D190CF90CF00D070D0F0D150D7C8
:103A7000A0E030E9F0EDA0F020F4A0F920007004FF
:103A8000D0063009E00B200CB0099008400AF00B7A
:103A9000800CC00C800D10112017101BA01BE01A09
:103AA000001A5019C01890168011F00AE005C003E2
:103AB0003002E0004001B003E007900BF00A8006FE
:103AC000E00190FD40F970F4A0F030F1F0F610FF45
:103AD000A00770104018001FC023A0248022201FC0
:103AE000D01A1014200B1001B0F8F0F3F0F1D0F060
:103AF000C0F1B0F4B0F7A0F900FA50F850F4C0EDFE
:103B000060E330D900D370D020D040D000D020D195
:103B100000D760E040E8D0EC90EF30F320F960FF90
:103B20006003E0053009000C900B2009D008500A12
:103B3000800B600CC00B500CE010A016001A001B8C
:103B4000A01AB01960192019F016A011200BD00688
:103B50003004F001B000A000E002E007400B600A72
:103B6000D006600260FEF0F970F440F0F0F0F0F57D
:103B700060FDE005600EA016301E0023F0238022B9
:103B8000E01FC01B4015400C1002E0F920F5F0F1D9
:103B9000A0F090F130F400F740F9A0F960F890F54A
:103BA00060EE00E440DAE0D3E0D070D020D0B0CEB8
:103BB000F0CF20D6E0DED0E640EB20EE40F290F8E9
:103BC00060FEC001F0045009000CF00A50094009E1
:103BD000400A100C800C400B900C20115016001A5B
:103BE000501BF01A901A601A901A4018A012E00C9C
:103BF0009008600510037001D000C0038008900B8E
:103C0000D00AD007E003100030FBE0F420F160F1AF
:103C1000C0F5C0FCF004400DB015901D7022C0230B
:103C20000023C020E01CE016800D8003D0FB50F67E
:103C300080F200F1D0F110F420F740F9A0F980F9FA
:103C4000E0F6C0EF70E5D0DBF0D4F0D180D1D0CF7A
:103C500020CEB0CFA0D540DE90E5F0E9D0EC70F1F9
:103C600020F840FD600060041009F00A600A500965
:103C7000C008200A100C800B700A300CB010B01570
:103C80004019E01AA01A001AB01A001B4018E012DE
:103C9000B00D0009D0056003B00050006003F007CC
:103CA000100B900A70078004000160FB20F520F1E2
:103CB000D0F080F400FB9002000B0014201CF020D8
:103CC000D0226022B020C01DA017400EB00400FD1D
:103CD000D0F690F2D0F020F1B0F3C0F640F860F9E1
:103CE000F0F980F770F0C0E6B0DCD0D500D3C0D1D9
:103CF00060CF50CDC0CEC0D410DD30E430E850EB02
:103D0000C0F050F7A0FB10FF4004A008900A700A12
:103D10000009C008E00A100CF00A200A200C7010FC
:103D20004015F018901A501A301AA01BA01BA018AA
:103D30001014800E000A1007D003C000700060034A
:103D40003008300B900A4008D005100230FC10F605
:103D5000B0F100F150F450FA6001E0094013001B8B
:103D6000502090228022B021301FD018B00FB00612
:103D7000B0FE40F8F0F360F1B0F140F4C0F620F886
:103D800030FA20FBA0F830F270E850DE80D7A0D4E3
:103D9000D0D200D0A0CDC0CEB0D4D0DC80E3F0E64D
:103DA00090EAE0F090F620FA90FEC003E007300AB7
:103DB000D0094008D008F00A900B300A7009900B27
:103DC000A00F60146018D0195019201A801B401BD6
:103DD000D0182014C00EB00A500780037000D0FF26
:103DE000E002C007400AA009500830065002A0FCBB
:103DF00050F690F190F0A0F3A0F870FF3008A011F9
:103E0000A019401FA02130225022D01F701920116C
:103E10002008F0FF80F980F480F100F270F400F6E1
:103E200020F870FA80FBC0F980F3A0E9D0DF40D918
:103E300020D6A0D300D060CD70CE30D450DC10E2BC
:103E400030E520EA40F000F510F9C0FDC002A007FF
:103E5000000A100910080009E00A300BD0094009D7
:103E6000300BD00EE013D017E0184019701AB01BB9
:103E7000B01B80199014E00FF00B2008F0037000C5
:103E8000D0FF2003A007A009A009000920074003D4
:103E900090FDF0F600F200F130F3A0F770FE00079D
:103EA0003010A018201E80206022F0224020901A9E
:103EB00080129009B001C0FAE0F410F2B0F2F0F311
:103EC00090F5F0F760FAF0FB90FAA0F4C0EA00E198
:103ED000A0DA50D730D450D050CD10CE30D4C0DB83
:103EE00030E000E4C0E920EFA0F3F0F780FCE0014F
:103EF000E006000920089007E008D00A900A40096F
:103F0000F008100A200E7013B016F017E018001A0F
:103F1000601BD01B3019C0146010900CA008000466
:103F2000F0FFB0FF1003E006D00880090009400749
:103F3000F00300FE20F770F200F160F260F6D0FCB2
:103F40001005C00E6017801CE01F80223023002166
:103F5000C01BC013300B9003F0FBB0F520F330F31F
:103F600020F4B0F510F8B0FAD0FC00FC00F650ECEC
:103F7000E0E2E0DC20D990D520D130CD60CEF0D485
:103F8000F0DAF0DEE0E360E9A0EE30F340F7D0FBDA
:103F9000F0010007D0080008D007E009100BA00AC4
:103FA000A009C008000A700E20131016D017A01820
:103FB000401A301C601CE019D0159011000ED00979
:103FC00080046000400060039006A008900960092A
:103FD00070080005E0FE30F880F370F120F2C0F5C3
:103FE00080FBE003B00DD015401B301F20220023C2
:103FF0008021601CA014000DD004A0FC90F6D0F32A
:1040000040F3E0F340F560F770FA20FD80FC60F6C5
:10401000D0EC10E4F0DDF0D950D6B0D080CC70CE2A
:1040200010D440D9A0DD80E2E0E720EDC0F160F5DA
:1040300080FAE00000064007B00670072009200A59
:10404000200AF00890075009B00D20126015F016F4
:104050000018D019F01B001CD019F0152012B00E5A
:10406000500A7004A0009000200320064008500968
:10407000C0091009A00570FF30F910F490F150F25A
:10408000D0F420FAA002600C6014201AB01EB021F7
:1040900080231022E01C1016900EE00590FDA0F782
:1040A00050F480F3D0F3E0F400F740FA90FD00FD07
:1040B000F0F600EE60E540DFC0DB10D760D0E0CC6A
:1040C000E0CE80D310D8A0DC70E120E770EC60F087
:1040D00040F480F9900040055006800690071009D2
:1040E000800A500A7008A0075009600DB011D01462
:1040F0003016D017301A301C701C401A801640132E
:104100002010E00AE0044001F0002003F005E00781
:104110001009300AA009F0054000D0F9A0F410F20F
:10412000E0F1E0F320F9E001E00AE0122019C01DFF
:10413000B021E0237022E01D00187010B00770FF5E
:1041400040F9B0F560F460F410F500F700FBA0FE54
:10415000D0FD50F8D0EFD0E690E100DEF0D700D1EE
:1041600010CEC0CF80D3E0D720DC30E1D0E600EC29
:10417000A0EF40F360F98000A004D005A0068007FE
:104180003009E00A600A6008A0070009200DA011AC
:104190003014D015A017201A301CA01C401AF0169D
:1041A0006014F010500B400590010001E002400542
:1041B000D006D008500A90095006D00040FA00F509
:1041C00050F210F150F2C0F7D0FFC008D010E01646
:1041D000001CA020E0228021C01D4018D010000843
:1041E00080FF30F950F5E0F390F380F390F540FA5A
:1041F000B0FD60FD80F890EF50E7E0E290DEB0D7D0
:10420000F0D0F0CD00CF50D230D660DAA0DF90E50C
:1042100070EA90ED90F180F840FF30032005B00582
:10422000C0060009700AD009F0070007C008B00CEA
:10423000B01040131015F016C019801CB01C401AA5
:10424000D0179015D011000C2006400280015003B9
:104250001005F0060009900A400A7007E00150FBC3
:1042600090F6F0F200F150F280F740FF2008D00FF6
:10427000D015B01BB020E0221022001FE0199012D0
:10428000C0095001C0FAD0F640F5F0F390F350F6B3
:10429000A0FA50FEE0FEC0F9A0F0A0E960E520E041
:1042A000E0D830D210CFE0CFA0D2F0D500DA70DF66
:1042B000B0E5D0E990EC60F120F890FEF002D00477
:1042C000600510078009E00A400A3008300700093D
:1042D000E00C90103013F014F016501AF01CC01CB3
:1042E000B01AF018F016F012400D1007100370020B
:1042F0008003F00410077009000B300B5008A00277
:10430000C0FCD0F780F320F110F280F620FEB0065A
:10431000000E7014101B10204022F021901FB01AC4
:104320006013C00A200220FB80F730F5F0F2D0F2D3
:1043300060F5A0F900FEA0FED0F890F070EA00E66B
:1043400030E0B0D800D2B0CEB0CE20D100D4C0D7AB
:10435000E0DDD0E340E750EA90EF30F6B0FC20011A
:10436000C002D003E0057008E009200930074006CC
:104370003008B00B400FD01180132016D019501CFC
:10438000001CB01A60196017E013C00D7007C0035D
:10439000F0027003C004E0062009500BB00BB00817
:1043A000900330FED0F830F4C0F1E0F110F6D0FD0B
:1043B000B005A00CC013801A801F20227022A020FC
:1043C000001C4015C00CA00330FD60F910F6C0F3CE
:1043D000A0F350F520FA30FF50FFB0F950F2E0ECB6
:1043E00040E8F0E130DA90D300D010D0D0D1D0D373
:1043F00010D850DE70E3A0E620EA20EFC0F570FC94
:10440000A0007002D0032006B008300A200910076F
:1044100080061008700B000F3011D012D015B019A3
:10442000901BA01BB01AA01900183014000EF00742
:104430006004C002E00260041006C008500B900B3C
:10444000A0082004E0FE60F9C0F440F120F170F50E
:1044500080FCE003200B70128019D01EA021B02236
:104460000021201DC016E00D0005E0FE60FAA0F658
:1044700080F460F320F5A0FAC0FF70FF20FA90F3FB
:10448000B0EEC0E920E370DB70D400D1B0D020D111
:10449000B0D280D790DD30E280E5D0E8F0EDF0F4E6
:1044A00050FB40FF70011003400540088009700870
:1044B0009006D0056007D00A200ED00FC01150150D
:1044C0000019001B401BB01A101AB0189014500E9F
:1044D000E00800050003F002C0038005B008500B9F
:1044E000700B30090005C0FF40FA40F560F110F193
:1044F00020F590FB5002700950116018C01D60211A
:1045000080227021601ED017B00EA006400050FB24
:10451000A0F7B0F4E0F210F5E0FAC0FF70FF70FA17
:10452000D0F400F010EB70E430DC10D5F0D110D1F5
:10453000A0D060D220D7A0DC10E120E470E7C0EC6E
:10454000B0F3E0F910FE3000E001E004E007F0080D
:10455000000840066005F006A00A600DE00E70112C
:104560002015B018B01AF01AA01AE01A6019001538
:10457000300FA00990059003200350036005B00898
:10458000100BA00BB009A005C00080FBB0F580F1B6
:1045900000F1E0F490FAE000600830104017101DC0
:1045A000F02020222022601F901830102008500197
:1045B00060FCA0F8C0F490F200F530FBE0FF10FFC3
:1045C000D0FA10F680F1B0ECD0E530DD90D660D3B3
:1045D00020D120D000D2B0D630DC70E030E380E6CD
:1045E00040EC20F350F960FD70FFA001C004B0075B
:1045F000C0081008200640053007600A700C300E15
:10460000E01080142018501A901AC01A401BA019EC
:10461000B0152010500A20062004F00210034005B7
:104620005008D00AA00BD0094006D00130FC20F67B
:1046300080F120F160F450F990FF1007900EE01522
:10464000001C901FC0218022A01F4019601110097A
:104650005002B0FD50F9B0F440F210F560FB60FF7D
:10466000E0FE50FBD0F6F0F230EE70E620DE30D8FF
:1046700030D460D140D020D290D6E0DBB0DF40E231
:10468000E0E580EB60F2B0F8A0FCA0FE4001A004E1
:10469000A00710094008000680058007300A200C9A
:1046A000200EB01090145018E019601A601BE01B27
:1046B000601AA0160011400B3007A004000320036D
:1046C00010051008D00A800BE009D006B00210FDDA
:1046D00060F6C0F150F190F3C0F710FE1005D00C59
:1046E000E014801A401E80219022D01F101A101250
:1046F000F0098003C0FEC0F950F4F0F120F500FB92
:10470000D0FEB0FE40FBA0F760F400EF30E760DFC2
:1047100070D9F0D480D1F0CF70D110D600DB90DE0C
:1047200030E1E0E470EA60F190F730FBD0FDD000BA
:10473000F0031007D00880078005500520075009B6
:10474000300BF00CD00F00146017E018201A601B1B
:10475000D01BB01A10176011F00BF007C004F00264
:10476000D002A004E007B00A800B300AD007F003A3
:1047700000FE00F7A0F280F130F370F730FDE003A7
:10478000200CC0133019E01D8021C022A020401B46
:104790008013600B4005C000E0FAA0F490F2D0F561
:1047A00030FB30FFF0FEE0FB10F920F670F0A0E8DF
:1047B00000E110DB50D660D250D0D0D120D6C0DA84
:1047C00010DE90E020E4E0E900F190F650FA30FDD0
:1047D0002000A003200790083007900580052007DF
:1047E0004009D00A600CA00FC013A0167018E01981
:1047F000201BF01B401B60170012F00C70084005D6
:10480000F002B00260049007600A200B200A8008C2
:10481000B00440FEB0F730F370F1C0F280F680FBD8
:10482000A002F00A1012F017201D1021A022302142
:10483000101C5014800C1007100210FB00F500F340
:10484000C0F570FBF0FE50FE00FC30FA30F760F16E
:10485000C0E980E2C0DC50D790D250D000D200D660
:1048600010DA40DD80DF20E330E900F070F570F908
:1048700060FC50FF4003F0062008E006800580053C
:104880002007F008D009C00B800F2013F015301856
:10489000C019501B901C901BF017E012000E60090D
:1048A000C0054003A00250047007200AB00A700A35
:1048B00050094005D0FE60F870F380F1B0F260F569
:1048C00030FA8001500940105016F01B10203022A1
:1048D0005021801C7014700D8008D00280FB20F5E0
:1048E000E0F2D0F520FB30FED0FD70FC10FBE0F7CD
:1048F00020F2C0EAB0E3C0DD10D8E0D290D0F0D111
:1049000080D590D960DC60DE40E260E8E0EE40F403
:1049100060F820FB50FED00260067007800620057C
:104920007005100740080009500BF00E701260155A
:104930004017E018201B801CB01B5018B013C00E8D
:10494000200A300690039002600480079009900AC4
:10495000300BF009D005000050F900F430F280F27D
:1049600070F450F990002008300FB015601BF01F54
:10497000C0227022401DA015800F700A6004D0FC78
:1049800010F6A0F3E0F6A0FBF0FD20FE80FD50FC49
:1049900030F970F360ECB0E580DF30D9E0D320D19E
:1049A00000D290D560D9A0DBA0DDD0E1A0E7F0ED8A
:1049B000A0F380F720FAF0FD9002E0053007100622
:1049C000F0048005E00660078008E00A000EB011E0
:1049D000C014B016A018201B901CE01BD018501457
:1049E000800FB00AB0066003500250040007A00810
:1049F000800A500B100A90068000A0F9C0F470F2F3
:104A000000F2E0F370F840FFA006800D2014D019EA
:104A1000D01EB0225022201D5016B010700B500531
:104A200050FDD0F590F3B0F6F0FA20FD60FD50FD9A
:104A3000A0FCA0F9E0F320EDE0E660E0B0D940D4BE
:104A400040D100D270D5B0D890DAD0DCD0E060E6AA
:104A5000F0EC90F2F0F520F920FDC0018005A006F1
:104A60008005E004D005700610074008800AF00DAC
:104A7000801120144016A018401BC01C201CA01937
:104A80006015A010400CB00710046003200510074B
:104A90001009100B100C700B1008C00120FB60F601
:104AA00080F360F2F0F370F8C0FEE005100D901393
:104AB0003019001F4023D022F01DE0177012600D46
:104AC000E00630FEC0F6A0F450F7C0FAB0FC50FD8E
:104AD000D0FD70FD30FA80F470EE50E8A0E190DA7D
:104AE00080D410D1E0D1F0D460D750D9A0DB40DF22
:104AF00000E590EBC0F050F480F7A0FB800080044C
:104B000040056004500400058005100610074009A8
:104B1000C00C1010A012F014C017901A301C001C0A
:104B2000901970151011A00C7007C00330035004C9
:104B300010065008400A900B800B20081002E0FB82
:104B400010F7C0F3F0F150F3B0F780FD7004900B54
:104B5000A011C017901ED0225022401E8018B01302
:104B6000200F1008E0FE80F790F5E0F7D0FA90FCF7
:104B700090FDB0FE50FE20FBF0F540F030EA90E3EF
:104B800060DCC0D560D240D3C0D5E0D7B0D9D0DB8F
:104B900080DF40E590EB80F030F460F7B0FB10016F
:104BA000900470052005300580051006700660072A
:104BB000C009200D3010A01200150018D01AA01C3A
:104BC000A01C401A8016C012A00D0008E0041004BA
:104BD000900440062008300A300C100CA008E002B7
:104BE000F0FC00F8E0F3F0F120F390F620FC500325
:104BF000000AD00FC016D01D20223022401EF0180F
:104C0000C0145010B00830FF10F8F0F5C0F710FADB
:104C100090FB20FDB0FE30FE30FB80F6E0F010EBA4
:104C2000C0E4F0DCE0D5B0D2E0D2C0D4E0D680D889
:104C300050DA20DEF0E3F0E930EFA0F2F0F5C0FA50
:104C40002000500360049004900410058005A00526
:104C50009006F008500C200F901150147017601A35
:104C6000A01C701C401A9017A013200ED0087005CD
:104C7000F00380041006B007300A900C900C000975
:104C8000C00350FEF0F880F460F2D0F2E0F5A0FB33
:104C900080025008800ED015101DC021E021301E6A
:104CA000C0195016B011B009100010F9C0F620F864
:104CB000F0F940FB50FD10FF90FED0FB60F740F292
:104CC000D0EC00E6B0DDD0D680D390D330D5E0D69E
:104CD00010D8F0D9D0DD40E350E940EE50F110F5A6
:104CE00080FA70FFC00210045004C0043005200593
:104CF00050052006A008D00B700EF010A0138016EF
:104D0000F019301C001C901A50180014800E8009F5
:104D1000B0054004800480052007D009800C800C79
:104D20003009700400FF60F9F0F4A0F240F210F5D1
:104D3000F0FA3001E006300DD014701C8021B02153
:104D4000501EE01AD0171013E00A200120FAE0F7F5
:104D500060F890F950FB80FD40FF20FFA0FC30F888
:104D6000C0F390EE70E700DF30D860D4E0D380D598
:104D7000B0D690D750D9F0DC80E2B0E810ED20F04A
:104D800050F490F990FED0014003C0036004C004C9
:104D9000C004B004B0055008000BB00D6010C01284
:104DA0002016F019E01BF01B401B1019F014B00F77
:104DB000700AA006E004C00470050007000AB00CE9
:104DC000900CD009B005200050FAE0F5C0F200F2D6
:104DD00010F560FA10008005B00BA013C01BE02096
:104DE0001021701EA01B10192014A00B100270FBC4
:104DF000E0F8A0F840F930FB90FD60FF70FFD0FCB8
:104E000000F910F5F0EF70E820E000D9F0D490D46C
:104E1000A0D560D630D7B0D810DCF0E1C0E7C0EB49
:104E2000F0EE50F3C0F8C0FD0001900270032004C2
:104E30008004300420047005A007400A000D400FD4
:104E4000C01180152019E01AB01B301B1019101565
:104E5000C00F800AA0060005700460046006E00927
:104E6000500C400C400A3006A00050FB80F6B0F217
:104E7000D0F1B0F4A0F9E0FE1004600AB012201BDB
:104E800030209020901E901C801A9015C00C40037A
:104E9000F0FCC0F9E0F8A0F950FBC0FDE0FFD0FF46
:104EA00040FD50FAC0F660F110EAB0E130DA30D6D9
:104EB00070D5D0D590D6F0D610D8F0DBA0E1F0E6D2
:104EC000C0EA40EEC0F240F830FD900030024003EE
:104ED000700490041004200430051007F009800CC1
:104EE000500E801150159018A01AC01BB01BC0198D
:104EF000F0158010200B6007800560040004300668
:104F0000A009E00B600CB00A8006600120FCD0F61E
:104F1000B0F2E0F170F4B0F890FD4002A00870111A
:104F2000001A101FA01F101EF01C501B3016500D31
:104F30006004E0FD50FAF0F810F9B0FA80FDE0FFEF
:104F4000A0FF90FDF0FA80F770F240EBA0E240DBAA
:104F500050D7F0D510D6A0D680D6C0D7C0DB40E160
:104F600030E6C0E980ED10F270F780FC0000D0015F
:104F70006003A00490042004600430056007300A38
:104F8000100C200E401110153018801AF01B101C48
:104F9000801AD0166011100CA0086006700430044E
:104FA00080067009E00BF00C200B5007A00240FDBA
:104FB00090F750F300F210F440F880FCE000800716
:104FC00080102019301E001F001ED01D501CE0163E
:104FD000400EA005D0FEE0FA20F9C0F860FA80FD8E
:104FE000A0FF40FFB0FD60FB60F8B0F310EC70E391
:104FF00040DCC0D720D630D640D6D0D520D710DB65
:1050000060E000E590E850EC00F1A0F6A0FBC0FEE7
:1050100010012003100400040004C00390041007D2
:105020006009000B600DC01070149017301AE01B5F
:10503000601C201B8017E011000DA00990063004B1
:10504000300440061009E00BE00C300BE007A00331
:1050500030FE30F880F320F230F4C0F750FB60FFF0
:105060001006600F2018F01CD01DF01D701E001DD2
:105070009017500FD006300010FC80F9B0F890FA6D
:1050800090FD60FF60FF10FE10FCA0F9F0F450ED01
:10509000D0E490DDD0D820D7E0D650D6C0D5F0D619
:1050A00000DBE0DF20E4E0E790EB70F010F6A0FA20
:1050B000E0FDD000E002C0032004D0038003A00480
:1050C000E006E008800A000D5010F0130017B01938
:1050D000A01B601CA01BB0178012300E600AC00617
:1050E0008004500400060009D00BD00C700BB008EF
:1050F0009004F0FEC0F8D0F350F200F400F7F0F99D
:1051000010FEE004600E2017A01BF01C101E101FE4
:10511000801D70187010D0075001B0FC80F9C0F8E5
:10512000A0FA40FD30FF30FF10FEC0FC90FAD0F531
:1051300090EE20E640DE90D9D0D700D7E0D510D54C
:1051400080D640DAD0DE10E380E620EA80EF00F57A
:1051500040F900FD100010026003A00330030003BB
:1051600070046006F007A009400CA00F1013901601
:105170004019501BF01C101C00187013500F200B0E
:105180005007D0045004E005F008C00B900CE00B71
:1051900070097005E0FF90F970F4E0F280F4E0F639
:1051A00030F9D0FCD003900D0016401A301C101EB0
:1051B000501F001E201930113009E00280FDF0F967
:1051C00030F9E0FAA0FD50FF50FF90FED0FDD0FB7B
:1051D00050F720F0C0E710E010DB30D910D860D6CF
:1051E00080D5E0D640DAB0DED0E2E0E5F0E930EF9D
:1051F00040F4C0F890FC70FFC00160038003E0023F
:1052000000034004F00560074009D00BD00E601287
:10521000B0155018101BE01CC01B30184014F00FC4
:10522000700BA0070005100490059008400B500C6F
:10523000D00BC0094006B000F0F9E0F440F340F4B0
:1052400040F6F0F750FBC002900CA014F018801B41
:10525000E01D901FC01EB0193012B00AD00320FE0E
:1052600050FA30F9A0FA50FDB0FEC0FE90FE00FEEC
:1052700040FC00F8F0F050E880E0C0DB80D9C0D7F7
:10528000B0D5E0D400D660D9D0DD30E180E4E0E8EC
:10529000D0EDB0F290F760FB80FE5001F0021003F9
:1052A0008002C00210047005E006C008F00A400E3B
:1052B0000012E014D017501B101DF01B0019301500
:1052C000B010700C800850056004F005B008300B79
:1052D000800C600CF00AA007C001E0FAD0F520F4C1
:1052E000E0F420F620F760FA2002D00B60130018DB
:1052F000001BE01D3020501F701A9013500C200529
:1053000030FFF0FA90F950FB80FDB0FE20FF10FF57
:10531000D0FE30FD10F940F2B0E900E240DDB0DA35
:1053200060D860D610D500D690D960DD60E0F0E39B
:1053300020E8E0EC00F2C0F690FA10FE00017002E6
:10534000A0025002F002D003100590063008800A37
:10535000E00D2011D0135017F01AA01CE01B5019BB
:1053600090157011100DD00860053004B00540088C
:10537000B00A000C300C300B1008400270FB30F605
:1053800070F420F580F5E0F580F97001700AF011F5
:10539000D016201AC01D7020801F201BC014A00D25
:1053A000B006400080FB50FAA0FBA0FDC0FE10FF3D
:1053B00050FF50FF10FE60FAA0F3D0EA80E3A0DEB9
:1053C00040DBE0D870D6D0D420D650D970DC90DF46
:1053D00030E340E710EC10F190F5A0F940FD8000BB
:1053E000F0010002100260024003A004E005300753
:1053F000E009400D1010F0120017B01A601CE01BFD
:10540000A01930164012D00D4009A0056004900587
:105410002008600AA00B600CE00BD008F00220FC12
:10542000D0F650F580F500F500F5C0F840003009E1
:10543000901040153019801D2020801FB01BB01522
:10544000E00EC007C00000FCA0FAE0FB80FD70FE8B
:1054500000FFA0FFE0FF00FFA0FB60F420ECF0E401
:10546000D0DFA0DCD0D9A0D640D5A0D630D930DC52
:1054700050DFB0E290E670EB80F0F0F4E0F800FD71
:1054800030008001F001100260027003900480057A
:10549000F006E009B00C400F80129016501A401C24
:1054A000001CF019F0163013800ED00900067004AD
:1054B000A0051008F009800BA00C600C8009A00367
:1054C00090FC80F740F6A0F530F420F4D0F750FFC0
:1054D0002008F00ED0137018E01CD01F901FF01B96
:1054E000801620109008700170FCE0FAC0FB20FDCF
:1054F00010FEE0FE50FFC0FF90FF10FC60F530EDA5
:10550000E0E5D0E080DDE0D970D640D550D680D837
:1055100050DB50DE90E190E540EA30EF80F3E0F7B9
:1055200050FC40FFE00080018001F0011003000406
:10553000A00480066009C00B300ED0110016B0190F
:10554000101C001C401A9017E013600F700A6006D0
:10555000C004D005B0078009700BE00CD00C500AD5
:10556000500420FDC0F830F7F0F540F4C0F340F7E8
:10557000B0FE00000000000000000000000000007D
:10558000000000000000000000000000000000001B
:08559000000000000000000013
:00000001FF
