:1000000000001500250054003D009600790099007D
:10001000F601BA007500DD00AE0044020300CA011B
:100020006000E300AE01E3006D01BF00C301DC002E
:100030006602830116FFE60243006A02D4FFB5019F
:100040007001910031022EFF450251007C017901BF
:1000500001015700ABFF5203FBFFE9FEC5FD74FF32
:10006000F0FFD7FF42FF94FD8B042AFCC00114016E
:1000700030FED601BC037301B5FED703580333032A
:100080000F0289022BFF10FF5CFF52FF86FDA102C9
:10009000F1FDB30337FA000092026D017F0004F511
:1000A0005D03F204B107150112044301C704D20035
:1000B000B1FAA90338FC86093CFB3505A3FF3A0FCA
:1000C000D60820F59C005FFA750395FA71FC45F996
:1000D000D3087304830499FE2405510834E9AAF671
:1000E00038F46700E5FE410CF100EC02E10E630B11
:1000F000B70711E98DF69AF56B05D8F56806A309DF
:10010000A7105D0F440B49F526EEC30BD3EE8EEA24
:1001100040F1B70A4A1DB41CBF0094033F0318FD09
:100120003BE9FEEDD606B3F1BC0E9AFD8507381B00
:10013000E717D4040AE2F3E949EFDCFF26FF33FBBB
:10014000E100BB18320BD5095C0F9AFFCFF736E9F7
:100150006BE786E6CB02EE220014ED1220002C0B9A
:10016000370582F383ED12FC5FF74CF41109C804E4
:10017000321E001404F9BAF9BFEE00F6E9F2950058
:100180005EF08801660E3A11B4FB9111AE0C3CF79B
:1001900081F943DC260073055E192B0A0208C606A6
:1001A000870BFB14F0F64E01FBE80C03C9D94D0692
:1001B000C10935136612DF059CFD29025CFF2FE2A1
:1001C000EBFE2BD6280013FC661A781AF3079F2340
:1001D0004AF95A00C4EDC8F773EED2FEE4F8281EBF
:1001E000F303C3232B1AFF0A50F58FEF12F13BE301
:1001F0006EF582E90300C1F792227E07E2157A0BC1
:1002000010F2D5FB95DA27DB82F1ED14110AB61E48
:10021000AA1B7621C719B21A18F623D3B9F811E729
:10022000CF073BF301046520E02A6F155AE87DFFF4
:10023000D8EAC6E62ECF9FD75ADCFA0B7829FA23E4
:100240005D0E23046D1834F013E7F1D638E93E054E
:10025000D20D5D0F121E643ABF38621952E03ADEC9
:100260008AE3D8E845FADAE91C01FD299D30EDFE64
:10027000FBFE8406EBE586E814BA2BC9C0DC0B153F
:10028000221D7A2358235914841C39E521E114E1F5
:1002900060F28BF1A7191E124B1D8951683BBF07F5
:1002A000C7EAF2EBBCD460D6B2FA49F0B50E182A10
:1002B000AD0CF81915EEBCEF26FE1EE187BCC2C4DA
:1002C00018F7A5039716172267361714FD0B73EA64
:1002D0005FF3F1F6C0F84D1647EEAD115B24CA5B33
:1002E000E623110652EC81EC5BE7CEDE6ED81ED918
:1002F000220E74129C10F010B004040105EB6EE89D
:1003000080C292EB9CEDDC0415FBC30D1B45E5346C
:10031000DE14CEF88AF3A6F584148304A0E9130C46
:10032000801D0123681E4E2E0F133B04E1D29DC891
:10033000DCD2C8E58CF90011BBF79BEF9E17E811E2
:1003400071FEB6F711CFCFD71ECFBEEE8EF5A11D31
:10035000FF48DD3616217F19D7FD2503BAFF57E583
:10036000F904F3065B11E01AC23BCC27CA14530808
:1003700092D3A2C927D86FEE03CDDCEAC9F6BB0D34
:10038000EE18490E4C0034F57FDDAEC55EDB13E49C
:10039000C8F4B809164CCD2B852D4D37381644F4CA
:1003A000A7F01FFB02F82F23E9F78324AF44F20BD9
:1003B0001C0BB801E90036D3BDDD45DD53B52DEB8F
:1003C000C0F2ED1E980BE4F551EABCFF37F4BFC252
:1003D000E6E0A5E3A1F150F9D2284A35EF37A94B61
:1003E000360CA70A6FFA6F0D9B01081CF2067827DE
:1003F000272049174614150D7A0225D853E51DBC50
:1004000026E751D2DAEA19EA470169E923F08211B5
:10041000E3E84AE1B5CCA3F1C7EC29F6830B003A37
:10042000AC42833E6320A624D215D605360CB4F91F
:100430003A1C9522142944138826D513A4E83AEAD5
:10044000B7D906CD70CCC6DE03D459DB260B6CD8E9
:1004500014045AF4AAE011D333E97BDFFAEC9905CE
:100460006E17533539381F3B381D5825671EA82F86
:10047000E4167F035B2A14320C16C40FA30EF3029A
:10048000150597E05CD59CD9EEE222CB35D8D5D8BE
:10049000F6D783E7FFFBBEED86CAF6E737DCF6E664
:1004A00049F3D8ED42198642D53762415E270E24C2
:1004B0002A145C2387105C1D1C435B2B7F22F610E3
:1004C000200A36FD28F557EDEAE4B3E87EF0F0C2E5
:1004D0001CCC5BE00CC378E24ADDFEE5B3D546EB0D
:1004E00020E0A2F44AF88F0094FBDB254F22092577
:1004F000F45150326C2F2213D327621B7D3E3A1BDE
:100500007518B516BF199405A00A4508EBD73BEA44
:10051000E9D153C435C5DACBEBD256E652E77BDBE3
:10052000CDE208E58CDD72D4DFEE31EDEDFE741D19
:100530000A2D843923590C37AF2EAD13131CBA2260
:100540000925AD2DD71DCB282E180611410A780696
:100550006FEC28E76ED470C350C70FB106C78AF09E
:1005600079F376D982E136EB25CF79E0D7DE88E1E1
:100570002CF4F708341E5945EE45CC53943634FB21
:100580002524052CC62DCA29AF357529B12C2F1E5F
:10059000FA1B2F005F0029E40BCF2BCD47BD53C4BE
:1005A000ADC1EDE506D163D9F1EEF5D34BCA8AD1E1
:1005B00059CA57CE27E77609B521E83DD52FE6453C
:1005C0000039B73515322625082978281B3B4529DF
:1005D000E22FE63752347210EBFF73F885E7E9DB60
:1005E000CDC524AB3DB460C8E9D28CD01DD978E527
:1005F0009ED459D2B7BDD5B99CD1D4ED3113412485
:10060000DF2BB840845C2F40423CF32F4327F22875
:100610008E3E6D389B2EEF487F2A9518D80E3F11DD
:1006200007F3ADE55DBAC7AFB7B2FEB36AD0F0D29B
:10063000F8D54EE6DED6F2C1FCC5A1ADD7CF7BDD45
:1006400004FDC60AF5199C4CB958ED42D24B6333F0
:10065000D52EF225ED2F902E96369950C7304C2E80
:100660003718560E4A0D1DF135CF72BD5E9B4AB14B
:10067000AFBAE2DB57CF67E092D1C0DAB0C313BCA8
:10068000AAC480CFFCE2EFEE8B10112E415E094729
:1006900010430B3D61400A2FF843CC3A822D393884
:1006A000012BB0348D2CB31E0C091D17ABE794CB76
:1006B0006DACB0ACAC9FB0C520CD3DCD87D29DDB3D
:1006C00096D247AFBEC039B5B0D5CDF29FFEF81F68
:1006D0005E47074E624C424414389A343C4A703D9F
:1006E0009C388E4FB83B4835AE1F64229121A91D1E
:1006F00022FAE1E4EEB8FA9E0AA082AB27C67EBDDC
:1007000088C97ADD5BCBA6C83BCDA5C5E4CAA2D615
:1007100061DC31EF231FEE4A6650EF60743C9E515E
:10072000BF4F0C3F2741C83DA438BB2B9A2FC8268A
:1007300025407B2CD01301EC96C3F1B8BBB34DA779
:10074000CFB5C7B68BB129C01CCE89C482D15DBFDD
:10075000F9CAE9BF70D07EE371137136FD42416280
:100760005B42EB60E44BDA362544AE41AB3AB23F34
:100770008534F42F0444BE3CF827A2F1FCC9AFC372
:100780001ABFC9AB11A810B413AA6FBD35CAE9D5F9
:1007900034C758CE64BB79B48DB469CE740132309D
:1007A000E7368C5B4B5BD450714BC141DF47554002
:1007B000703F98362840733E204FE939CF29A50075
:1007C000D1E785D80DBEA4A75CA23FB4BBB117BAD0
:1007D000D1BD53C823CC6CBE9DBA8BAE85BC78C549
:1007E00031F49E181B36B6550560BD3A5F4F45473C
:1007F0008F48003DE74A0342EE447B4FCA3D6B4AB7
:10080000751E221D8DFB41E0A6B5FFAB17AB3CA8C2
:100810007CC92FC1E2AF0AC63DC14BB7BBADDBAC53
:1008200029B244CF86EEAFF67A221747E463935E8F
:100830007B50AA3EA241F03F9250B545AD4B474C8C
:100840009D3FB133D039222BFF182FF5BCBE48AEE7
:10085000C7A0DEA1ECBAB1BE87BCD4BD7BC332B0A9
:1008600063AF87B897B3EBBDDBD63DE3A1F90C4A84
:100870004165946A655021491B3F6746233EFB4E04
:1008800020578647274140476F467339B4243DEDD2
:100890005DBFEEAFD8BB9FB74AA977B0DCBA2EBB1D
:1008A0007BC40BAC90B817BB8EB1EBA851B9EBCCA5
:1008B0003EF66038984BE35DF66D8062584E6340BB
:1008C000102FB8398C524C460249F751A2615C4056
:1008D000EC35E9FE11D55DBEEDBBD8ABB79732B2B2
:1008E00009B1BEC381BDC4C307BA59B91BA998A435
:1008F000B5AE1BCAA6F2D8211E39594A47751A61EE
:10090000AF587942B1363D41F83E6D4DC544415531
:10091000AA527249D027320E66EC6BD7BEBF80B3A5
:10092000A9A26DABCBAECEBAAFBDC6CCB1CA6DA8D5
:10093000E9AD4B9EEBADDBBEB8ED640DE42C874515
:10094000CA67F468D254AC4BF2467F44273447441C
:100950000B47194E8356284C1540230E77F752D774
:10096000F3C8EDB371A62AB096B0D9B1B0B2B7C78B
:10097000F0C8EBB574B6A8A72CA144BCACD9E0FA7A
:1009800016155B3C4C5DEE7225593C603B44653668
:10099000533BFC3F8347304BBA57634B4546C52515
:1009A000D010AEEF7BD368AA11B10CAB7AA71BB005
:1009B00086C2A4BA91BD15BF98B709AD2DAE61B47A
:1009C00003C9ECD9A6F98F372160BE612769236777
:1009D000FA4239412239AA399A3D63506C4E4E4E43
:1009E0000A453537AA26BF0147DB7CB5DCB83F9FF7
:1009F00007A040AED2B89BC606BB7BBED5B14EBDEC
:100A000085B7B1B50BBA80C3A7EF281D8855EF6233
:100A1000986D7D669C522244D8340144C93D6A4297
:100A2000BC452B44BD4B844AF5278CFBFEDF55CBE0
:100A3000D2C554A6C49889A53FB7AABC4FBF7CBDF8
:100A4000E5C07CB9E3B44CAD3AB434CFF8F3631AE3
:100A5000452C5A4C4C642D76C05730507343064099
:100A6000FA40F7347340F84914538B39A2295A05D8
:100A700031F536D80FC6E4ABDCA739AA21A4A2C051
:100A8000E1B6E8C689BFEDBEFBB2DEAA18BC4DC90F
:100A9000DFE8E2FBDB28F252975A825F395CE252D0
:100AA000864D96454B3C5B33FB3F264E4D4FB34640
:100AB000982D9B12CBF85BD564D0D7BA0AAE17AA93
:100AC000AEAE84AC8DB7AFC23ABB06C812BC25B17E
:100AD000B3BA4DBFC5C969F1442A1E42CC58386427
:100AE0002E5B8459785132458E3B5035853AC0494A
:100AF000354E1A4F56469D1E36F405E138D699BE3E
:100B00008CAD68B0C6AA98B446B944B72BC081BAB8
:100B1000F7B9DFAFC3BDAAB25ECC4BE9691558384F
:100B20005B5DAA5983547D5B1546E94F0C3E8445B5
:100B30008738EA444F424D51DA43492E9E08D7E7A1
:100B4000C2D489BFE8BDD5B520B77CB7E0B45EB7E5
:100B5000C4B40DB80CC043B39EB9F5B01ACEA5DF2E
:100B6000F3F6AE26F154FF54C553714E97516E4BB8
:100B7000AA449B46EC3653495B456F4D54431036AF
:100B8000BF2404FD79D4B1C3FABB43B413B611B684
:100B9000F2BDE7BA4FB5F2B5ACB66DB90EB402B559
:100BA00074BA12CB1FF68322C845DB4C6359365406
:100BB000A0482145C24AE849954044433D3ED94EAC
:100BC000614DC6427A253706F4E0EFD6B5BB37B49F
:100BD0002CB64DBB63B2C2B5ABBB6FB80BB7FDB99A
:100BE00074B308AFCDC070CAA9E29505CB333056B7
:100BF0007B5CC94EA250B64FBF509441143EC93FD2
:100C00003F405B4CD84BE53EFB2E1A168FF7D9DFE1
:100C1000ECBBBDB36EB485B7DDAF14B89DC011BDDC
:100C2000ECBD67AEFDAD83B328BE97BF97D095F4FA
:100C3000FB2DA3479D5E3158A7528A51AE47E24132
:100C4000C43E3746CE468C4D264AEB48823EC921EB
:100C5000EAFC9ADEA7BFB5BAF3AFA2B432B4E3BDE3
:100C600033BC59C045B91DB02DAD68AAB4B1E1BBC4
:100C70005ED5DEEFFD23B6459A55E7537751164B07
:100C800008465A4326405D46C4497653BB4EDA5067
:100C9000E33F482290F4F7DD20D6DCC6EEC5C8B3AA
:100CA00008B954BB7FBDB5B3B3BBF7AE98AC58A978
:100CB00033ABEFBA01D6BAF56A0DB5352542CB494B
:100CC000A94F484A0046704A4E482A469A52F54E65
:100CD000A24C5B4C05483C248D0827E2DBDF37D56E
:100CE000FCC190BF28BAFAB987B44DBA0FAE93B120
:100CF00045AD04AB57AE20B2B2CB4AE29809E72823
:100D0000BB46884D764CB54598442545BA47234E99
:100D1000444AF7514D56F84E4D4540336C0EBAF5E6
:100D20003FDB11C483BEEDC3AFBE65BF8FC134BA14
:100D30005BB361A7D9AAA6A6B6AFF1B4AABD16D96E
:100D400018F8B024BB4DEB50D94ED242843A24431C
:100D50004043D34CC74B55596C549A525D46673B40
:100D6000411E5D02C5D5A4C8CEC16EBC60BDD5C054
:100D7000DFC803C47CBFD3AAA7A8A19EC1AE81AA25
:100D8000F5BAF2C7E3EF9417863F6E520A58584AF5
:100D90006743C13C133A7F3EEC490857FF58FF5662
:100DA0001D5464451F26E20666E737D394BDEBB8B1
:100DB00029B493C01EC864CEBEBE5AB736A4F7A3EA
:100DC00015A27BA4FAB1C4C5AFE58007BB32675456
:100DD00068592B53FA47793C103AF941E145F84EEE
:100DE000AB55535D58592250D533A21192F0E5D33B
:100DF000A6C9F0B13FB6F4B8F9C30DBFEFC5BFB790
:100E000082B53BA28CA10DA1A5A8C3B9CBD81A006D
:100E1000972E59542E552054F145CF4AB03ACF461B
:100E2000A4416D4C554E3956625B6752253F781A86
:100E300025FCC3D785D309B66FB546BAE2BEC6B99D
:100E4000F0BF63C0CDB59CAEA4A17EA1ABA9F5B7A0
:100E500068CAF2E94C0EA74B465A74560650AA418E
:100E60005148DB3C9C455F43955203538256695081
:100E7000B94CC52E540A2CDDFDCD5CC3D9B989BB54
:100E8000E6B83DBD1EBD62BF97B3E4B215A6D7A6B6
:100E900010A283AC52BB74E56715903E2757CA4D2C
:100EA0008A534A486C440F3DBD3FDD42844B71522A
:100EB0000F5C5B5F674CF9318AFDE0ED3AD498CD69
:100EC0004CB8ACBB5FB9CCBE68BE4EB925BDD4B181
:100ED0003AAC459CD4A49FA574C148E17506003482
:100EE000495347524955C945C043CD403341394123
:100EF00093473B537D5AD05E17494B3D0D15C5F3C3
:100F0000A3D414CCCAB75EB727BAC4BA2CC032C1B6
:100F100062C159B251A671A13AA2C7A906B43FD283
:100F200024FDC12BB4575757874AA9497A44034136
:100F30008F3EEB3E6A47E052A05BDE5C575C944418
:100F4000C81D6FEBB4D10EC7C1C03BC21EB4DFBE1B
:100F500020C2C3C6C5BDDCB86CA7A9A5D39C149C90
:100F60002EAB3BCCF3F31D2639462156585D304D50
:100F700056442437383A533EC547CF4D4958F25D61
:100F8000D160DF4DC62F23FC0DD623D1B2B9FBB003
:100F90001BB616C8D9C7C1C7C6BEE4B74EB1FDA7B8
:100FA000959CED9DA3A5DBBE50E2260810410A6684
:100FB000BD64EC46B63A03387840363C5A41014AA3
:100FC0009F5AD85E6C63DE53CD32881C73ECE5C546
:100FD00051B4D2BFA1C004C2B7BFDBC598C400BD25
:100FE0001FB3DCA1DA99F598D2A69BB4A5D3B105BD
:100FF000A639105D1C57DE4681437B3FF5367F3AAC
:10100000403FA045085F37659C5F7E521A45EA2342
:10101000F6F73AD2CEC876B02DB9BEBC95C54EC64D
:1010200020CA52C100AE28A25C9AD8A0EBA609AD96
:1010300023B709E826297561275CBB5694433039EC
:10104000653D9C37303F634CB55AEA572E5A2457BA
:101050005E5BFB32D70340D407C660B158B260BEB6
:1010600007C371CC0AC7E8C284AFEBAAE29F159D03
:1010700042997EA4B5B95FE19413B44EEC67C45AAB
:10108000D14EB237C737D33879418545D455F45757
:101090005D604C605555563E14183FE561BA09B97C
:1010A00075B560BC96C0A0C55BC69EC7B7B332AD70
:1010B0006EA1C39CB59B769E58B1BEDB7D0FF03C04
:1010C000EC5480551A545443E542D53559439B415D
:1010D000484D835444609C63F856E73E711E55EFBB
:1010E000A2D112CFD3B688BE23B8C0C00BC324C7C9
:1010F000B0BA6AAFD7A5B099A19AADA49AB459D1A4
:10110000B8F4F516214C545DF2513249FF426B415F
:10111000493B9744AB46FE593B62FA5BC351F449E5
:10112000312B360B3BDB39CD7CC1F4BB8EB97FBF95
:10113000D8B7F6BF41C07FB176A51B9DAD9E1AA35F
:10114000AEB28EBD7CE5FF0DF936984EB3533954DF
:10115000BD4CC646B6408A41574657522458895F0F
:101160002C5598485E39621390F058DA6ACC89B7EA
:101170003DBA9DB5B1BA01BF07BF6DB441AE9F9EE8
:10118000D39D92A457AD76B8CDD1E3F54F1E7247EB
:10119000455ACC51914D4B49944666470C416F4C92
:1011A00067593F5B35587851064517258E0B44E14A
:1011B000E8C4D2BE63BEE8B2C3B6F1B8B6BF2DBABA
:1011C000FDAB75A431A07EA5DEA657B677C78EE726
:1011D000DF15AF40304957576050B3538444E54161
:1011E000E0440F4A94596B57CD55C74C73431231A5
:1011F0007F1736EF4EE19EC14FB72DB5A7B57BB82F
:101200004CBE2BBA94B147A8FAA266A7A6AECDB63B
:10121000B6B948D3FEF5002E5457BE579250A14F91
:101220009846C641E8458F512C557854CB52D24D43
:101230007F467939A928ECF62CDB05CAD4BDA0B8C5
:10124000EEB8B3B796B861B7C6B123AC10A62AA65C
:1012500052ABF1B3A1BC92D0F3ED3C13593D155EF6
:10126000DF59494D66477142A648504F814FBB52E6
:101270001653EC4DB84BA239BD2F771077ED4AC607
:10128000B7B7A3B0ACBC1FC277BAD7B69FB273AF23
:1012900037AA74A71BA9CEB398B63CBEA5D0E30568
:1012A00052496B60A0590747F9471A44A64C784742
:1012B000634AA14D0250E74EA94E9647B040B5256E
:1012C000E4EB19C848B389C1BEBC02C3F0B581BA0A
:1012D0000FB77CB71EAC8EAB13AA05AC0BABF8AB4B
:1012E000B1C902FFDA365453AE581D51504872430B
:1012F0000D48FE468C488D479947B451E95A855DA3
:101300009B46D22C90F21BD45DC151B6EBBBE1BE23
:10131000ADBCC3B9A5C0D8B986BC69A94FA3C59A4D
:1013200038A565A827C555EC8D2A43516F60A25298
:101330004D47ED49AF414A43E738A643754A25601A
:101340005C61F15D7B49B732370021DA46C339B5BC
:10135000D6C268C0BDB8A6BB4CC55EC0E0B9ABA1E3
:10136000AF9EFE9CBF9E10A14BC2E1E42A1D814BA3
:10137000824F2654DF4E5150BE41F53A6B36D5426E
:101380004B566360CC62725EBE4E3A319D08F3DF0D
:10139000AEDA6EC6F5BA3CB4DBB611C1E5CB27C5F3
:1013A000C8B3C1A6DC9A7398AEA0B3A8B2BC22E1C0
:1013B0006707E92FC94E375ED753DE4E6340D839F1
:1013C000FA3DC745E250E25C63627E586354F231F5
:1013D000BA1C7CF6F2D93AC906B857B3D4BEFDBBE5
:1013E000DCC646C015B7AFAC1E9E639C0497ACB379
:1013F00081B85ED7B7F9AB2EF9509E517348DC4ADD
:10140000DA3C893E25417F3FA851AA5AFE5E6F5BB8
:101410004459CB40EC213DEDADD8C8C705C0E5C06F
:1014200032BC67C53CC9DDC22BAF38ADEC9FF09E26
:10143000819C939C84A7F9D0CB00EC30C149ED4B43
:10144000F2503244833B2F35C2430149A4513053FB
:10145000CD5B3B606061E447E32014F61EDD2ED1D6
:101460009DBCA4BEF8C0FBC3D2C35CBFA7B428B068
:10147000C5A56B9FB497009C6AA932C810F1381AB1
:10148000D245E25DB1532847BB3D6C3A483DAC4381
:10149000AC49F155B160EF622C5C8F4D6E2B950914
:1014A000C8E4D7C2B3B995BB44C08BCB0CC9A8C2A2
:1014B000A8BB0AAFEFA6D59E7B9EE19DB8AC30BB22
:1014C00084D6E007553F7B60275E2D4A4842D039DD
:1014D000393C0D408E494C50145A4660C356A356B1
:1014E000424A812214EDBDBFC7B8FDB2A8BC7EC17F
:1014F00052C52CC612C188B9E5A970A6E3A217A5EA
:1015000075A344A23CC228032A33C25B6B536E52BC
:10151000184C0E43B73C0B3E8E43994EE057C752D2
:10152000A65A5A5DFC50C52A8AFB1BD5CFCE83B87C
:1015300009B9F3B8E1BE68C065C136B49CAF60AF0D
:101540003CA5D49F199B6CAAF7C676EBB30FAC3EB3
:10155000A25AD65FCF52784AB5424D408C4152478D
:10156000354B47546E5D865E0F55D933A31153E555
:101570000CCD04B990BBB5B24BBC8EBF71C0DBBA09
:1015800055B9C2AF41A2DA9B089B0DA980B7E6DC32
:10159000C8031F327E541560FF56824888421348A4
:1015A000B541F7414D4747560F5F825DEE54943782
:1015B000A622D7F2EAD6E3C668BAD5B7DDB63BBBFA
:1015C000D8B71DBC68BD12B4C6A4199CAD9D2AA78E
:1015D0002FB87CCE58E5421B024CF05B6657AF4FEC
:1015E000EA53DB489A406B3E5247E754EF5F6D5B2E
:1015F000ED4E0642C22AAC0718F02DD037B710B313
:10160000A1B427B6ECB7D3BDB0BFB2B7ADA1B19E00
:10161000959F0CAAA3AEC0C4C0DC7C0A8240B15B1B
:101620006859AB52174F78488D43D63FBF48EB52AD
:10163000FC597757FE5258454E3C451F73EB19D362
:1016400040C0A1BC0BB07CB527B74FBDFCBEA4B554
:10165000B8ADDAA075A3AAA372B255AF42D11FFCF0
:10166000A5331D55A65D06574B4A1B50533E2042DD
:10167000CB44364FB7534D5AB6535A58CF476921CA
:10168000E1EEA5D147CC26BAF4B7CCAD25C4CCBA8F
:10169000DCC210B383B0FBA129A08E9E49A59CB5E6
:1016A0006DCC2AF2B21A2C489161A65C084D5848BC
:1016B0003A41FC43BC42D2474D52F756255F016088
:1016C00085453D2DC109BEDFF3C0E7B1AEB39DB680
:1016D000CFBCBAC0BBBE10C130B64EAEB69C479AA6
:1016E000799BE9AA77C151E7C5102F482F5A6B5B48
:1016F000BF59FA46D343CC3B6B41014026522E5989
:10170000195F2C5C175062363D1807E6DED2A7C081
:101710008EABB6AF47BB22BFA8C286C536B510B1E7
:10172000E8A2E597119ADBAB35B6B4D335FC512965
:10173000D05FDE643E5A794FD53D9C3BC940424262
:101740009346A6594160C56146591E48861E7FF9D9
:10175000A2DAD9BE08ABDDAFD0B70CC3B5C4B1BFF8
:10176000B7BE8AB305A52C98AE95E99A40AC69C777
:10177000CCF0402C8B5DA2646C5A0C487240763CD5
:10178000583F2F3B2C48355A686093648A61CB4C94
:10179000C431120331D4B5C0EEB26FB73DBB14BE35
:1017A0006DC464CBEAC07BB3F2A6779A8990989A0D
:1017B00005A2D4B7C0E9EF19D34DB562FD516E58FB
:1017C000704053385735C23F6C47E0555960B36499
:1017D000AF64BF56BE36A10BCDDC8BCABAC774BF8F
:1017E00064BECCBCA6C5C5C12BC383B25AA9A898F8
:1017F0004E98CC9970A3F4B541DF11097030524670
:10180000BA529654C24AF345DD3B693F7743BF5510
:10181000055B64608562BA547F3CEE1267F096E027
:101820008CDAEDBCA7B55EB6B0C1EEBFD6BE48B18E
:1018300038AE97A15098DC9AA5A610BA7DD604F7C9
:101840007F0F623F5F5AC258AA4EBB4807414349C7
:1018500085464B489755325F105B204F0B3F6F2BEF
:10186000A00A56E9EEC9B4B461BC19BED7BD1FB910
:1018700071BB76B7C8B399A410A17E9F55A2F9AEEB
:1018800034C719E276158D4D2A58AA4B694A9C42F5
:10189000924603443643474BD7527458735A595AA9
:1018A0009C4E533569074AE33FD2EDC7A0BFE9BD5F
:1018B0002EB9A1BD35BAEBBFF8B159AC7DA04AA095
:1018C0000AA0A9AE22B8A8DD26080A2F7653B15582
:1018D0007F4FF24AE3421840A547B9486E4B865302
:1018E000FB5B025BC55886433C210CEC4AD49EC886
:1018F00027B30BB98BBD44BB06BD63BE12B7AEB0F8
:1019000022A99C9D5A99089DE1AE4ED079FBD72A19
:10191000C9574961F850624C8841A6406E407641F3
:101920002947A5529B60E0651960D143D126E5F3B4
:101930004CDBF8BFD0B3E2B92BBE28C03DC113C306
:1019400034BA5DB7329FDA9A71984CA454A1C8C2D8
:101950004EEC1A283056CB60B2587D4B3347FA36DE
:101960004A3F753D9E46A6536B5EEF5D926C885074
:10197000042D600276D469BEEBBB9BC40AB725C0B8
:101980005ABB06C78EBB0EB736A6A29FC993109846
:1019900073A857BE4FE0041B63564C583A56594C37
:1019A0009447A73ECB40F93DBB46DF4FB8589962FC
:1019B000AE62685A043FBF0576D670CFDABFE3C087
:1019C000DFB7C3BE37BF76C673BDF4B71BAC1E9F6F
:1019D000B99837987C9FE3AE7AD9A50CBA401051DC
:1019E0005B5BA94F5C484A3EF03C3443B83E354E01
:1019F000E3585B62B3645B5DAE3DF41EFCEB4FDA13
:101A0000F8C5F7BE4AB47DBC22BF1CC044C725B789
:101A10008EAE7A9BC0990B9992A9C9ACE0CBF9EC38
:101A2000591E1C4CA1651D5FB24D25457437F93D0B
:101A3000893F534C3F5806667E5D365BC145E434B2
:101A4000040702E6C5CAE6A766B654B7CCC1E4C42B
:101A500017CC71B98EB1D29DAF9BB39D2CA4AEA40F
:101A6000B2B6E0D4D10F5C473A637460BD51134BFA
:101A70001B3A8638FE3ED84DC953D55CB85A525FE2
:101A80008F59153EFA103CECCAC797C0ACB9CDB41B
:101A90007EBCCBC46DC4B7BC36B64BA690A4FD9A31
:101AA00031990FA121B822D89F03C92BED43D957F3
:101AB000A26353496940583F0F44A348E246D650B9
:101AC0001862766A994DEF42B81B000100E60DCF0F
:101AD000F3B57AB19CB66BB796BD73BD4EC096B3E5
:101AE00075A8D999C69DF1A585B5DFC530E425084F
:101AF000BF4965617858FA51EF4AD0490C43D24347
:101B0000D83E3C56685A85568A521A51E1371A1106
:101B1000EBE2AAD56EC6ACB971B486B469B3B1BBF9
:101B20007BBF8BB24FAE27A6CE9FAF9E8AAB81BC48
:101B3000C3DE1608EE2FE74D23525550C457804B95
:101B4000FE4645444048354EE054585B0157F14F3E
:101B50009B3FA62060F32FDA02C72AC057B7EDB229
:101B600071AFA8B9EBB832B663A935A69C9F8B9F1D
:101B7000A4A0BAB5C8D195F83D281E4EA153315B3B
:101B8000D1523F4A744718447248CF49CE568756BF
:101B9000185C2256A34B6E23F1F5BDDE40D2F2B89D
:101BA000F0B21EB630BA10BB02B85CB5EFAF7DA87C
:101BB000DBA0309AB2997AA893C9BFEA3A123641AB
:101BC0008760255EED531B47F246E648A246D4489F
:101BD00083506859A7606B639252952F3113F1F2CD
:101BE000FDCC64B2FEB226B403B3ACB7FDB938BBCA
:101BF000F7B5F3ADE4A0769B919AF8A71CB9DFD6B0
:101C0000630029378A54AA59665837527055FE47DF
:101C100049464B429E4A6854A860E76184598D4208
:101C2000C22C13F138D19EC81AB5B6AE07A815AFAD
:101C30004BB750C247B9DBB1A8A88E9C239C6EA4B9
:101C400040A8F0C483F3111A464E3263A35FB05C20
:101C5000A5521648393B4646F1461759EC53E65E05
:101C60006E5D49540E302908D1DA4CC703B980AAF9
:101C7000D3B005BCAFC7BFB966BBB5AABAAEFF9BB0
:101C800044A02698E6A940B7CAE3D31EEA4363629C
:101C90009D58994F1D46D03E3840884A5C4E2C5284
:101CA000B85AC05EEE585A529A3CA00DA0E738C907
:101CB000CAC9DCB357BA2BBB1ABE5DBEEEB8FCB1C5
:101CC000D6A7EBA4ED99179EAF9F2FB8B5DCB1094D
:101CD0009E30F9590E57F24E584D513EDD43AA42FF
:101CE0008449D04C525CC25B5F613C56B2400D1ED1
:101CF00095ED18D377C732BBDAB6F9BB1EBB43C02C
:101D0000E3BB9FB681AB02A4BE9BEA99509D1DAC7C
:101D1000AED2B4F73422E04B3F5CBD5CF04D1746C9
:101D200080428845DE4299489456CB5B7863315FA8
:101D30002443D029F103ECDE7ECBC5B04FB44FB7BE
:101D4000C3BB3EBB8BC1D5B962B055A96099E898B9
:101D50008F9DC2AC1AC25CE48D0E734E2F64B960C5
:101D6000E854B043443D3B3B414591473A5B985E64
:101D7000A0602558394DC33AE619FEE2B1C367B3F6
:101D8000C8B1CEBDD5C5A0C8D6C0B6BBDCABB6A762
:101D9000B49B7F9DD89F06A90DB4A0D27F05F63CC9
:101DA000695E40637E506741153E4C3C3B415E4D51
:101DB000C04FFF59D85C105D294EF1437C2494FE3E
:101DC00096D511BB32AC53BD6AC130C943C312BCF6
:101DD0004FB966A6BA9D7B97C0A3F79FA3B318C35C
:101DE00022F56D251360D9647C4BF1443F3A0B41D9
:101DF0002A3E6E4BDF49765FB25C4E5DA1548C4A41
:101E0000B82D3F09BFD033C074C3EDB43DBF52BC41
:101E100065C67DBB70C085A4B5A37B9DA8A1489F66
:101E2000F5AB1AB96AE9151AD34019598654885185
:101E30008441DB43FD3C26478C499E55A655495DB0
:101E40000359AC57B83B930D2FEC0DCF7CC3FEB9B3
:101E500098B613B71BBF9AC448BB6CB33FAFA8A7D3
:101E6000BDA24D9D14A12EB1F8D9620B8930354A1F
:101E70004F599B535D4C4745E03FDD411A44424971
:101E80009C51815CA360E4526547D01BC2F82FE2ED
:101E9000F1C58CB87BB70CB71CBB1EC73FBF32BDAA
:101EA000E8B26FA86DA1EBA0B89C59B346C72CE867
:101EB0001A217F511B589658145778435F3D923D25
:101EC000BF3C3747A950D154E3608759234CC536EE
:101ED000450B17E112C514B5AEAE22B82CBC5BC1E0
:101EE000E3C83DC358BDC8A8E3A10D9B2DA25EA4C5
:101EF000FEBA4BDFA613223F9E6677612B4FCC487C
:101F0000983AE5386C3792462A492558EE5EED5FDF
:101F10005051003BE819ADE7CCCD47B2FFB02DB230
:101F200078C151C6D4C5F6C1FEBB63B0769B6B9B2E
:101F3000939C63A2B1AF31D22803F9403860206A84
:101F40005255B044943F433BA239A63CEC49BD589E
:101F50003C5F6960455BE637F2205CF3B8C955C465
:101F600019B7F0B432BABABCAFC632C3B7C021ADEC
:101F7000DEA66897A09764A04EAF43CFE8F7BA23D8
:101F8000DE559B5C955C7E593745E240CC33C23AC6
:101F9000D145B5557F5D6267695DAF4B772562FAC4
:101FA000AEDB17CE52AEC1B1B8B958BE3FC2BBC648
:101FB00012C196BB41AB9B9704934C9994AB20C63E
:101FC00095E9C00C30464460AE629657D144DD3F7F
:101FD0001A36883B093ED5533661156D9A5B3851E8
:101FE000CA37691CCFE998CB7EB1E0B0DAB970B6D8
:101FF000B3C407C3ECC873B727AD44976699099774
:10200000DAA64FB6F9D2B303EB35C657845CF15864
:10201000C44A3C42303A333BE53E9E51625D6168C2
:102020004463D751D242B427F0FE48D4E4C7BFB2CC
:10203000FFB40EB5F5BB57BFD1C991BC7BAE329B87
:102040000595C79B17A45FB15FC90AEF791A415480
:102050003B60B753C1509447C63C673DB4415C49AF
:10206000A95F885FA25EF5573849282A7C0987E175
:10207000EFCDAEC024B31EBB0CB82FC077BEE8BFF7
:1020800077B18FA6CE99BA97849FC4AFE5C102DE1F
:10209000790B483CC361605781501C45EE4649416D
:1020A000DC42C5489E4F8E5B715D195CB24D413E6E
:1020B0002A145EE7EECADEC43BBDDFBBAEB52CBE64
:1020C0000DBBEEBB9FB232ADEFA0CE9A949B83A026
:1020D0003EB5CDD642080A39AB55EE558E54BB45B8
:1020E000DF4365460B46924A9B4DE756E05C915FA5
:1020F000E353D3417D13EBEF9DCF8ACB64C47FC103
:102100000CBB10B910BCEEB4F1B554AACBA3189E09
:10211000CAA07AA307B3C7C8E4F4F31EE749FB5388
:102120006E52075421488747A045424B584DA05452
:10213000F75C3C5785573949E333250382D523D0D3
:1021400030C4F3BBEBB41ABA3AB42FBC40B6DDAB23
:10215000DEA66FA6239F1DA19DA532BAAEEA63122B
:102160000631115C3E6033500153FD4668486749B3
:10217000F8477C4C525542588F5C5E5B0438AF196F
:102180002CF429CE1DBD85AE9EB1BBB96EBD5DBB25
:10219000D7BC52B58BB0CAA50CA1C59DB2A531ADB7
:1021A0008AC9DFF81835005C2161435DA84D91496B
:1021B000CE426544DD4243478253945F3B5CA05767
:1021C00049473F2899061ADE45BE82A97FAD55B61C
:1021D000B2B981C0EAC022BE7CB093A571A0AA9D0D
:1021E00067A579AD10BEFADC5013094EDB6D8A5E2F
:1021F0002F53CE4E23405B41413D6D45CB529E5502
:10220000D35EA656A14BC8440D1847E683C2B2B4AC
:10221000DFAD64AFC1B5CABAA3C4FABE50B9A1AEAE
:1022200007A0BD9E2DA8BFAA89B12BD01D02C5371E
:1022300086605563F35C555290462541B542C440D3
:102240006F4585558B58A4591B55AB4C9A202BF6DE
:1022500046D405CAD6B08FA7F2B197B30CBDA3BCC4
:1022600011BFE0AFEAA88F9D479F4FA00AB083CA75
:102270001EF4E120355862620F638054AA45604A1B
:102280006040D841C641B85171549D64055E6848AC
:10229000CF223204CBDB03C965B69AB6E9B660B289
:1022A0008BB821BC29BEFCB692AFF99BB594689C53
:1022B00048AC3AC44BEDF611C13CD55E12641158DE
:1022C0006A4B1F4823456C432D3ECB4A2759346146
:1022D0005A599E55E336E717EBE977C7A1B637AEF3
:1022E00032BBD1B085BAF5B907C2DAB875B3C0A1AF
:1022F000549968953BA3A7B58FD71C0A5C3D355E02
:102300007F54EA55AC4BF44D943EE541DA3FBF4A69
:102310009C5BEC62E56209506A42191C95EF73D42C
:102320000BCE96B910BA34B9EBBA6EB951C3D1BB62
:10233000C5AF06A10798869C68A972B698CC4EEDE9
:10234000631EF344C450045C6E4BA64E4F4BFA3EE2
:1023500068442F4C9858175CC05873558E48EF311D
:10236000E704A4EAC8D1D7BC3EB9ACB107B66CB794
:1023700021C2FBB439B390A12CA5199ADFA579A588
:1023800075B66AD78D0F12497B58DD588458715441
:102390009E3C4B41743CF04D9154DD5C5559F95ACB
:1023A000D25B283B4D0F44DEC9D49CB9D1BD19B7CF
:1023B000D0BE83BA5CC247B990B3A1ABA0A3E69EDE
:1023C0009C961DA068B012DFCF056635FF3E4854CD
:1023D000DC5D074DD745CE3E9D426A4D93519F4DE2
:1023E0008A5D6261BE6183412C227AF17DE9FECE75
:1023F00048BAA1B386B618BDFFBBDEB53AB5DBB6A9
:10240000FDACF4A48C954EA09AB126CD2FE7B40A6A
:10241000A23685598B6048524449CE48274C9B438D
:102420006D4117484E590F5A6A5B714D9B39091A15
:1024300049F8FBD6B5AFD5B3ECB22EB82EB3D5B9AB
:102440001ABE94BD2CB425AACBA0A79EE9A6D7B2EC
:10245000DCCB9EF8CE34FE5A00670450304F4E4914
:10246000A846BE4371435C46D24EF2563A52965647
:1024700058473833DE0408D7E1BD67B796B270BD60
:102480008BB35EB5FCB8BEBD46B4D0AFDEA74CA2E0
:10249000BDA7ECA97ABAAEE50C207A5582617452D8
:1024A0000D513B4550494044B5447F3FC84DA9516B
:1024B00081572456B552C13A4F0D2FDDB2CC4FB7DC
:1024C000C3B483C0ACB93EB8D4BDB5BE1CB451AD25
:1024D000039F0A9F6FA310A902B64CE24F12BB3FA5
:1024E000F45FC9574048F44A5044A93E48415C4211
:1024F000DD4EE356FA5C8D5999562E3EAB0FAEEB8E
:1025000082C929BA9FBDBEBB7BBFADBEC4C1B5BC2D
:1025100017B85DB161A28E9EA296399F75B789DD0D
:10252000B10BB138E94F8358CB4DDC444A41CA3D29
:10253000133B883BCE50675677649F63C3566D3616
:102540007F1491F143D3AFCB5FC621C0D6B917C575
:102550006AC381C68DB63FAE569E5D9B1D9691A304
:10256000CBB8BCD771FD492761431F531959083EA9
:1025700034412D36A33DB443074CCA5524676067E8
:10258000BF4CE2406E1ECC022DE205D4F0B8A8BDCF
:10259000DFC3B3C6CBC70FC272BFCEAB99A3F99549
:1025A00000A26AA577B2CAC6B3E7F10AD8427F5E35
:1025B000694A9047FA3C023E083D7B44D1456A583F
:1025C0005461415AAD586E46F4336019E3EBCBC900
:1025D0002AC68CB805C103C3A7C0FEC0C9C119B6BD
:1025E00048A5EA9E4295ECA28BACC9BB86D2880E68
:1025F000EB34C75B5958BE42FF40F03F7F43583A27
:10260000E24B114DC35E6D580160E54C8843A21941
:10261000BCEA48CD40C41AC0C7BDDEC6FAB9E6C898
:1026200023BDEBBE6EA7ADA512965BA4A5A356B0C5
:10263000B1CD91FD032CC052D5560F4BB949AB3BE0
:10264000DC4181381644B148C45C8359695FFA4F54
:10265000E6476A26CF02A7D787C27FC372C477C274
:1026600036BE5CC777C1DDBE37AE59A1BBA0C5A4DD
:1026700091A39EABD8C3B7EEDD1A18466F54334E04
:10268000DC44273C443FDD3A7E43594A4857445690
:102690002760485CFF479732C90E63E7BACDA1C0F7
:1026A00028C201C3F2C3B5C5DCC0ECBC00B447AC62
:1026B000CE9EA49EF59A4CA9B2C100DB860588384F
:1026C00073561B4E984EC93B1F400341AF42054213
:1026D000DC4CDE55165F1161DA5037446C138DF116
:1026E0003BCBDACE76BD6FBD24BFD4C4FAC2F6C2EE
:1026F00083B9FFB0D8A56E961B996FA2F8B903CC29
:1027000048FBEC1D1547CE595D513C4A34445642B6
:10271000F538BE412E46A255A85E6762AE562B49DB
:10272000E9213CFFC6E6C2D447C4E0B6EFB9C7B75B
:10273000C4C005C0F6BDCAB506AB22A0139E8BA6C9
:10274000DBB377C6EBE0D602B429EC5BE55A655102
:10275000D54ADC400E3F73412049B54E6A5A6B554D
:1027600072544B45C63DAC24B6F408D1EFCB78BDCE
:1027700085B465B9FABE29BFCABD3BB7AFAB7DA66C
:10278000F8A12FAAC3AB9DB7DFCCE6F2D71AFB4264
:1027900006601D5A354E7344CF3C174212471B4CFE
:1027A000F855AD56DB4C5E4C95435A2BD70F6AE774
:1027B00085C97EB522B4F0BC3EBF04BFF7BE37B6B4
:1027C000B1AD41AA71AB3EADD3ADCEB395BE46DA45
:1027D0008E088141BC5F9B58AD4E994274421248AD
:1027E000984AE44BB14F2D4E6848A84A8D4A9C390F
:1027F000271D98F070CA54BFB8BB5FBA86BAF0BC48
:102800002ABCCCB8D4AD83AC64B152AEF5A7DDAE72
:1028100060B649D0A0FBDA30B54E01562457674A5E
:102820002F412D40C5485D48004A9C4B0854EC554B
:10283000444DB53F2B24A901F1DA69CA23BA75B713
:102840003DBA3EBB3ABD00BDD5BAA8B034ABBEA0C0
:102850009EA751AF2CB6D4C357EE8513153E1D5D10
:10286000405F0050E0482144DC400742F63E1D4DE9
:10287000E359BB5A1F4E06493F334215A8EA65CEBD
:102880004FB635B2A2B2C3B977BC07C1F9C353BDC5
:1028900065AD81A065A5A5A788ACE7BB9CDAF6026B
:1028A0004F3F1561FF5E3C4CFE4A30463A3E123FB8
:1028B000893D484C5E525A5C6B59F25003404B18AC
:1028C0003FEBF3CFA9BC2DB57FB8E3BFEFBE04BE8D
:1028D000AFC219BA73B5CAA476A4149E95A686AFE2
:1028E000DACD66F9FE31D25DC35BB3514C479F3AF6
:1028F000054A4A4115408C3FC84DFD5859678559D6
:10290000DE47A02807F3DAD020C264BAE7C05EBC75
:1029100014BB3CBF99BF60BF8BB99CAE4E9C039C5F
:10292000DB9FA5AA9CC1E3ED311E6247625B6B5839
:10293000C94B2549903F3E3E3F3DA73E5E50495919
:10294000485B4957194E5A2DD316C6E7B9D08BC2EA
:10295000A5B391B8BBBAE6C3D3C023C5BFB46CB2AC
:10296000E1A555A57AA225AA17B6C2D56FFBDF2E21
:10297000C758EF5D1F58104831467A36103F9B41CB
:102980006E50A450435592567456DE4A3A29FDF5CE
:102990008ED67DBD53B02AB6ECB857C1E6C3DDC4B0
:1029A0000FB756B539ADA3A930A258A19BA472C3E5
:1029B00045F0D724A453E05EEC56DD541544D838D6
:1029C0005F40B0402F45534EDE518B58935CC15051
:1029D000E337F30C0BDD01CA14B241B088B3F5B78D
:1029E000EFC08DC253C1C9B4E9B0ACA8E9A5159D2B
:1029F000F9A087B770E0820DB43CE9574D65C05D22
:102A00003548963FDB3D1F42CA3E714AA54D315ABB
:102A10003E5BBB53C73C4C2A49F888D146BA9EB3AB
:102A200011B4A9B740B986B8C9C049B8F7B9B1A7B8
:102A30008EA36D99BDA2A8AB4BCC58FA17314F4C61
:102A40009860E9582850224E4B44983E7837AE4360
:102A5000784C5861805DE75CCA46B12FA6FC8FDFD9
:102A60001BCBD7B309B6FEB261B7D7BB59C3AFBD55
:102A7000C4BA6DAA1CA0819C8AA0BEAAF0BFCFE1F7
:102A8000200E1F4C646545527157784C5942F93DF0
:102A9000123B0640F84AC258935AFF5B6A57DC3C27
:102AA000A512BDE996D167BACDB732B694B404BFCA
:102AB0003DC1ADC236C1E9AF5C9F2A9C76976FA538
:102AC000A5B8E1D70709EA36414B615C8B55B24B9B
:102AD000E1450C41BE3BAC3B204C485A1F5F0862AD
:102AE000DB53EF3A792214F0FDD8F4CBD9C080B58E
:102AF0008EB5D7B874BED1C7FFB808AF4BA4769BCC
:102B0000709CD3A19FAFFAD455F9801DAD422757D1
:102B10003052835151474840883A8E402F4C2258BA
:102B20005F5E845AC158D03D3E2C69053DE5EAD828
:102B30003DC298B34FB5BBB983C057C421B9A2B049
:102B400059A817A2A59EEEA6C5AE54C38FDD0F07E8
:102B5000273A805A7358D552B445EE40403FFE4361
:102B6000A345EB53F05D095A74558142333E701909
:102B700093F731D347C3E6B6FBBE34BB20BB2FBFB0
:102B8000CABD0AB321A75CA5F8A3FCAC33A9D9B58B
:102B9000A0CFF1F967262854BA54374F364EDB459B
:102BA000A93FA940B447D64C395BC95109546F4F6E
:102BB0008B4620290D01F6D808D09DC1BDB705BAB6
:102BC000FEBE50C12CBA91B7AFAA23AFAEA638A1B2
:102BD00095A018B20DC5DDF1B920844419546E508A
:102BE0000246BC3B53442242184CDA48F14C4F5544
:102BF000685E8455E44A082D4C0748E805CD73C843
:102C000087BC1CC67FBCA3BE58BB42BA21B23FB131
:102C100037A5939FC6A0F1A885BC6EDF9A069F35A5
:102C2000AE555E4F6E4BB73EFA3D0544F04BC33F89
:102C3000234CC4515257955B2B57163E46213BFD02
:102C4000A9CDC2B96BB2FCBF4CC6DFC4C9BC27C199
:102C50005FBAD9B0CBA50B9FF19A5AA3FFAE9EC124
:102C600018F75833F357D5600C582F3ED63E3139FC
:102C70006F37503F234CDE53FF614A5DAD527550B4
:102C8000D333A5025FD4B0BD65AFC7B9FFBF14C9C8
:102C900080CB27C9B4BC60B2A9A45C9F8D9C64A101
:102CA000C4A562BD23E8371BED4C36606F590A504E
:102CB0005B3B1637FA3B173F58471D54D557655CA9
:102CC000565AD14EC436B311EBE96CCD22BC05B4D3
:102CD00011B980C2BEC6D6C3B5BF1BBDF4AED0A36A
:102CE000C69D829D18A63AB54CD73302DF2D3B5BBB
:102CF00038633B4ED9445842183A2B376B4245480B
:102D0000645AA85DDA5D564F5B416C253DFA21D6C9
:102D10004FC5D2B96FBF84BB54C062C84EC2DBBBC3
:102D20004CB5C0A4869DB69FA3A3D6B47AC858E775
:102D3000D51BD548D3534352614F1D429342B93AF4
:102D4000A43F08487252D255FE5CD659DD405E342D
:102D5000740ECCE587D6BEC139BF5EB9DCBB74BA90
:102D600075C19DBD23B547B04EA783A442A8A6AFA9
:102D7000C9B646DB4EFD3E25CD50C35727573D4DC6
:102D80001543FD42B0441244C53EDD4F60556057C7
:102D90002E54FC39C6215B034FE342CD13B888B6ED
:102DA00092B3CBB5F6B5B4B934C19BBA19B14FA93A
:102DB00078A4C9AAADB1A5C2C5EE061E5447945861
:102DC000AF51044F79494B4DEE40403D2B3F7F4979
:102DD000E24DE8584854F44AED2A0B0A29E5E6D3B7
:102DE00064C488B69DB804B59CB9EFBFF4C1E9BA14
:102DF00059B6A4A51FA51BA252B0FCC0DAE4CC09A9
:102E000057324552FF53B14EFD4CB448753F5F42B7
:102E1000CA3EB7454C5002548D4E4C4AD939F71B27
:102E2000ABF6B9D910CFF5BE0DB7CAB660B8E9BADE
:102E30003BBFB2BC5CB0ADAE27AED0AB00AD1AB7F5
:102E40001CD116F78425EB4C364F984EE64C5C4768
:102E50006E3D5C415440624A624BAC50D44F444C8E
:102E6000F2426A28330407D644D70DC3B3BFBABBB6
:102E70006ABBCEC208C76EB90EB3ADAB8EA950A562
:102E80000CA90CB2C8C749F77A13C937194D2B5191
:102E9000E650B7406638003B09462047CD4B2451E9
:102EA0000554D354BC4DE029E40BBFF000DD2EC720
:102EB000C3B5D9B631C179C440BE7FBD65B72CB4A6
:102EC00013A5FA9FB89F6DB3F2C08FDCB400A22C9B
:102ED0001451155A3C507C44D03FC03DD93EA53FCB
:102EE000CD4A05570D595059984761335E1CE3FA96
:102EF00027DDADC944C323BA5DBC92C171BF21C3F4
:102F0000DFB7F4B1E8A38AA2D1A769B4D1B584CC64
:102F100037F2AA1C523F2B5A1450B14AEC4B1C3AC0
:102F2000E33CF73E6C4C844D33582F509C4F3D464C
:102F3000322D9A07E0EA9BD304BFA4BAC3B88DC070
:102F400060C0F0C2A5BA3AB8A8A838A5D7A687AB82
:102F5000E8AC6DC051DF4E09C23FC2576D52214FE0
:102F60003646B23C663D2E420B46324F7A510954EA
:102F7000B957B049CB36061604EC5AD254C4BBB884
:102F800003BBC1C36EBF8AC1CBBD4FBA6DAF0FAA21
:102F90000DA242A23DAC13BC73D4F5FA792A90522B
:102FA000AA561851044C483EA23F9A3FAA411B44DE
:102FB000F254B6551456454DF5470E2AA4061FE1A6
:102FC000C4BEC6B797BCA7BDB6BBE7C361C0BEBE93
:102FD00029B26AAD84A44BA328A668B030C039E6F4
:102FE000D5198146325D6F54844ED24123421B3D38
:102FF0001E413643DE4C6453EC5BD355484D6D4265
:103000005112DFDDBBCB87C41DBBF7BB36B9A3BBF9
:10301000B5C312C384BA6FB0D7A3D2A155A43BA83D
:1030200082B771D414001627A053EF5A2C530051C5
:1030300054406D3B9B383F429E463A562B54455A6E
:103040007A55254ECD2C33056CCDACBC7AB798B6ED
:10305000D4B6FFBA5CC114C4FEC21AB23BAF94A48A
:1030600057A39E9DBCAA07B9DBEBF229CF4EDB59D3
:1030700001604D52214456441035CD39A63E454D90
:103080003552D75EBD59B3521A3C5A0BA4E335C82A
:10309000FCBB7BAED2B48DB10DC2D2C5E6C5F3BCCC
:1030A0005AB439A31D9A5AA119A345BB2FDC650D4B
:1030B000AA374458EE61A15E8F507740493DE8350C
:1030C000903A0B470057365B04625855A53C1815DB
:1030D0002AFAEED8CEB9B4B1DCA7AAB1ABBB93C97A
:1030E0001FC3B4C543B740ABF99ADD9CF79C42B30C
:1030F000FBD1EFF816205E53456AC25D325931426A
:10310000653FEE35CD3D7A3F2051BD5BF15E4F5AB4
:1031100096490F2C0F0140E16BBEB8AFDDABDEB0BE
:10312000B1BCBAC556C3DFC3A8BC86AA99A2579B37
:103130000EA21AA9D9BF20E2BE15284B0F6BD1638E
:10314000DC523044753C76409F405D41CA499958F5
:10315000105B8758C148AC37251CEDE849D0D5B184
:1031600083AF66B7C4B52DB8B0C3FFC670BE83B118
:1031700045A485A3B2A263AEB2B6FAD3C6FE1E3A88
:10318000B655B45CB453CC4E3D4D8F40463CA93A45
:10319000DB47C75051550A551751BC3F2125EBFA63
:1031A000EFD556C544BA99B38FB195B521BFDBC8E9
:1031B000A4BD36B72AA94AA4DDA04CA6A7AD96CED9
:1031C00078F9A0284750B5551258EF4DDA46DC3E45
:1031D0004A3B783A6E48824FBE5574581058FF49A2
:1031E000FF299AFB57D546CFE5C3ECC1C7B40DBE46
:1031F000B2BD0DC4A5BBC7B591B0F2A9F09F5A9A54
:10320000A4A634C72BF52818613AC34AD354B64C48
:10321000084BB83AD03F9A43AA469A4C4F50A2590D
:1032200040561A56CF30690AD5E7DDD8B0C066BC23
:10323000F4B62ABF15C5E9BE4ABCEDB69FB32FA4AC
:10324000569F0F9AB3A8DBBFF5E17C05C630734FDC
:1032500037557E55FA3F853DC339C03F8F41164BE8
:103260001F516B5F4D654E4FC6343615E1FB93DC45
:10327000DCCFFDB409BF6FBE04C533C3AEC44DBCC3
:1032800063B6000000000000000000000000000025
:10329000000000000000000000000000000000002E
:1032A000000000000000000000000000000000001E
:1032B000000000000000000000000000000000000E
:1032C00000000000000000000000000000000000FE
:1032D00000000000000000000000000000000000EE
:0832E0000000000000000000E6
:00000001FF
