:1000000075077507550734070207340713070207FA
:10001000D106A0064E06EB05FC0589054705370508
:10002000C4045104BD037B030803B60212029F01FE
:100030000B0177000400A3FFCDFE4AFED7FD64FD4F
:10004000F1FC1CFCEAFB67FBE4FA81FA3FFACCF90D
:100050005AF9F7F8B5F853F811F8CFF79EF74CF7BF
:100060005CF75CF74CF74CF74CF75CF75CF75CF728
:100070008EF78EF7BFF701F801F832F853F8B5F8AC
:10008000F7F839F9ACF93FFAC3FA77FB3DFCD0FC3D
:1000900095FD7BFE0FFFE5FF88005D0112029502D2
:1000A0004A030F04C40416058905EB051D064E0618
:1000B0009006C10602073407550775077507A7079D
:1000C000E8071A082A082A083B085B088D088D08EB
:1000D0003B085B082A08F90786074407C1066F0634
:1000E000FC0578051605A3043004AD03080395024A
:1000F0005402D0012C01B9001500C4FF0FFF7BFE94
:1001000019FEA6FD22FDC0FC5DFC0BFCCAFB98FBA2
:1001100077FB57FBF4FAF4FA05FB05FBF4FA25FB31
:1001200057FB36FB77FB98FBCAFBEAFB0BFC4DFC4D
:10013000C0FC02FD95FDD7FD29FE8CFEFFFE61FF90
:1001400082FFD4FF04002500570057007700770096
:1001500077004600150004000400C4FF72FF40FF52
:10016000FFFE8CFE4AFEE8FD95FD43FD33FD02FDDA
:10017000C0FC8FFC8FFC8FFC8FFC8FFC8FFC8FFCF6
:10018000AFFCAFFCC0FCF1FC02FD43FD95FDD7FDCB
:100190004AFEEEFE40FFC4FF4600CA002C01F101FA
:1001A000950208039C031F045104F5047805DB0540
:1001B0002D064E06A006D106D10613077507440783
:1001C000440744071307E206E206D10690062D060F
:1001D000FC05BA056805F504C40461040F04DE03D8
:1001E0007B032903F802B60285024302E1019F0165
:1001F0006E010B010B01EA00980077004600C4FF76
:1002000072FFFFFEBDFE4AFEE8FD95FD22FDAFFC3C
:100210004DFCDAFB67FB36FBC3FA3FFACCF95AF91F
:1002200039F918F9A5F8A5F884F853F842F853F805
:1002300084F8C6F828F98BF9CCF93FFAC3FA57FBD2
:10024000EAFB8FFC33FDE8FD5AFECDFE72FF150080
:100250008800EA007E01E101F101120254029502D8
:10026000B602B60295028502850254022202F1010D
:100270007E012C01B9002500C4FF72FFBDFE19FEEE
:10028000A6FD43FD02FDAFFC4DFC5DFC5DFC8FFC5B
:10029000AFFCD0FC22FDA6FD29FECDFE61FFC4FF10
:1002A00057002C01F101B602AD03A3043705EB059D
:1002B0001307B7076C085209060A690ADC0A3E0BE5
:1002C000900BB10BD20B030CC20BC20BB10B800B0A
:1002D0001E0B9A0A790AF609410900093B085507DD
:1002E000A006DB05160561049C03D702F1013C0161
:1002F0008800E5FF40FFCDFE29FEB6FD43FDF1FC81
:100300008FFC4DFCCAFBA9FB57FBF4FAE4FA81FA17
:100310001FFAACF939F9B5F874F8CFF71BF7A8F65E
:1003200004F6A1F54FF5DCF469F406F4C5F3C5F362
:10033000B4F3B4F3F6F348F479F40DF591F545F61A
:10034000FAF611F818F90EFAF4FADAFBC0FCE8FD37
:10035000BDFE82FF4600CA00FB007E01120243027E
:100360009502D70208036B037B031F04A304C40494
:100370004705780568057805DB05AA05890589051F
:100380004705F50451040F04BD03F802640212028C
:100390005D01CA0057002500040004001500150087
:1003A00057008800EA005D01E1014302B60229031B
:1003B000AD030F0461043705EB055E061307E8077C
:1003C0008D082009E5099A0A1E0BB10B350C970C14
:1003D000760CD90CE90CA80C450C240CD20B1E0B86
:1003E000790AF6095209AD08F9075507C106DB0578
:1003F00037059204DE036B03C702E1012C0188007C
:1004000082FF19FEAFFC67FBDDF9CFF7C2F583F37E
:1004100003F1C4EE54EC15EA18E8EAE50DE452E203
:100420001AE113E02DDFBADE0CDF1DDF5EDF86E0B0
:10043000BEE138E335E532E7A2E912ECD4EE96F1FD
:1004400027F42BF781FA43FD250008037805B70749
:10045000F609D20BCF0D590FB210FB11C012741355
:10046000A613D7137B148C145A148C14E713C713D8
:10047000C713A6136413F1127E124D128811F410E3
:10048000B210DD0F490FE60E320EBF0D5C0D0A0DE6
:10049000B80C970C660C760C660C030C240C030C41
:1004A0005F0BCB0AE5098D084407DB05EE03540218
:1004B000250029FEEAFBCCF9E0F7D2F5F6F39DF230
:1004C000D1F047EF93EEDEED7BED8CEDBDED30EE40
:1004D000D4EEBAEFE2F02AF252F3ECF4D2F52BF7B5
:1004E000A5F8ACF9E4FA3DFC22FD29FE0FFFD4FF8C
:1004F0005700B9005D0154029502C7026B0329033E
:1005000008034A033A03F80285026E0115000FFF43
:1005100019FE3DFC81FAF7F866F669F46CF2BAEF61
:1005200030EE23ECB2E9CDE895E73CE61BE6C9E501
:10053000EAE5BFE674E7FEE82CEB7BED2DF052F325
:10054000B8F63FFAB6FDF101DB0593094C0DB21088
:10055000D713EB160919171B451DAE1EF71FDD201B
:100560001E21502181218121DD203820531F451D6E
:10057000DC1BC51A651899161F156E128110B50E71
:10058000660C690A2A086F0616056B031202EA0058
:10059000A3FFBDFE4AFE95FD22FDD0FC4DFC0BFCE9
:1005A000C0FC43FD43FDE8FD08FE75FDA6FD43FDCF
:1005B0008FFC3DFC81FAC6F86DF7DCF4AEF2A0F0DA
:1005C0008CED4DEBEDE87DE6C2E459E310E2F9E095
:1005D000A7E0A7E02AE141E24FE44CE69BE86EEB9E
:1005E00030EEE2F0D5F3E9F63FFA22FDC4FFB602A1
:1005F0000505E2066C08060AC20B7D0DE60EDD0F4E
:10060000E410A911F1121914FF14B3152616471698
:100610001616D41561153914AF12B210840EF30BEF
:100620003B081F0472FF57FBCFF752F351EEB9EAB4
:1006300042E7CCE3CFE103E0BADE37DE37DEBADEF5
:1006400003E000E2B2E4D6E7B9EA30EE96F15FF5F6
:100650006AF9B6FDAF01BA0573097D0D3611401573
:100660000919701CF71F98227424C426FC276F28D0
:10067000E1283D28E4264A254622421F901C6C1999
:1006800026166E12D60E4F0B3407DE037E01FFFED8
:1006900064FD4DFC25FB71FA50FA05FB8FFCB6FD9D
:1006A000EEFE770085028204FC055507AD081009AF
:1006B0001009B7077805DE030B0195FDCCF90DF5A0
:1006C0005EF06EEB0AE61AE13ADCACD756D473D191
:1006D0007FCEC4CC30CCCECB0FCCAACDE9CFBBD211
:1006E00049D709DC76E03CE695ECDFF25AF90400E4
:1006F000A006760C36117215C718C51A031D9E1E6A
:100700003B1EA81D5F1C621AB7182D1716165A1427
:10071000C012DA11C310B2100B120113BD149916D6
:10072000E2172A19AD19931A481BAD19231826167A
:100730001511660CB7079F010BFC45F65EF0CAEA7F
:1007400024E5A7E0D4DDE8DBB6DB29DC20DDAADE8A
:1007500013E0B4E256E595E798EA4AED93EEFCEF34
:10076000C8F1B4F3E9F605FBFFFE4A03AD08F00D4E
:10077000AF12D818001F012434298A2C662E9E2F10
:10078000B82E552E3E2D34296B259B20AD19BD1456
:10079000BC0F20091F0415001CFC9BF9E0F7D9F6DB
:1007A0009EF728F905FB19FE2C01920475079A0A99
:1007B0005C0D6A0F5010320E800B4407FB00DAFB11
:1007C00080F5BDEDB5E786E036D9F3D390CE44CAC7
:1007D00092C774C5D0C4D0C4E0C46AC640C746C876
:1007E00064CAFFCBB1CE7AD263D623DB7FDFF3E4DA
:1007F00064EC27F4C0FC9006180FBA168D1E0F2665
:100800009A2C1E327B365E39D1390C397B36C33295
:10081000FA2E192AD724941FF918C7130E10B10BFA
:10082000690A060ACE08E5091E0B450C9B0FC71383
:10083000BA16D8189D196C19201A101A7F17AC1403
:100840005611450C860785027EFC9EF7AEF23AED06
:1008500081E97DE6FDE3C5E25CE165E090DF37DE3E
:1008600047DE26DE5BDCC7DB02DB46D978D943DB1B
:10087000EEDCE9E022E7C7EC7CF281FA2903F30B16
:100880008C141D1C46220F26FC2754290229E4261D
:1008900074245920101AD713CF0D2A083A037BFE6F
:1008A00098FB0EFA42F89BF9CAFB19FEEE034109C8
:1008B000BF0DEE14521A871D6021C0237E236A20CB
:1008C000A41AE1128D0895FD52F3D6E709DC94D104
:1008D00036C831C0ADBA0CB826B7B3B67FB806BCBF
:1008E0007DBF2BC47EC90CCEE6D17DD5D3D85BDCD1
:1008F00076E0A8E5F1EB09F2E7F8E101900B1F15AE
:100900007A20622B2C34583DE045B74B1A513F54A6
:100910007054AB5386505E4A49422D395230E4261A
:10092000351D0814270A6E0198FB4CF706F4CEF229
:10093000AEF2DFF2F6F332F8A6FD5D01BA0510095A
:10094000B409D20B1B0DC20B580AA0065D0195FD20
:1009500042F89DF230EE2FE991E4D8E061DD43DB0F
:10096000B9D9C3D8DDD763D6AFD5B8D4BBD2A4D15B
:10097000EFD0E2CEAACD7FCE4BD070D3E4D890DFBB
:100980005DE637EF6AF930049B0FA41AD023312BB0
:1009900094305D3439367B36743550320D2D512606
:1009A000AE1EEB16B210690A1F048800C0FC1FFAC5
:1009B00036FB0BFCFFFEEB054F0B25116C19941F4A
:1009C000A6248C2AEC2CBB2CB42B8C25E21C6413A3
:1009D000D1060BFC90F083E28BD7C4CCBBC127BC03
:1009E000C0B8DDB571B636B73DB8D5BBF9BE91C25A
:1009F00081C785CA72CCC1CE4BD03FD3D3D890DF4C
:100A0000B5E713F177FBB707E7131E213B2FB73A82
:100A10009F45F34F1B567159CA5AFB5A7B583152A6
:100A20003D4AE93FFB33FC27791BA210EB05F4FAA2
:100A300021F3C7ECB5E7BFE67DE65AE864EC6FF05A
:100A40005CF740FF6805E90C1C1274130516891643
:100A50009513CC0FE509D7024DFC27F433EC77E56D
:100A60007FDF43DB08D756D42ED359D207D29AD290
:100A700070D314D466D414D48AD25CD0B1CE99CDBC
:100A80006FCE00D166D4E4D8BADED9E506EF0EFA0F
:100A90001D063313AE1E1C28C530F537413C3B40C4
:100AA0000E4394410D3EA039AB313429F421DF19B6
:100AB0009811830964028FFC01F8A8F677F6E0F735
:100AC0007EFC5D015507280F6115BB1BB92230263E
:100AD0004E288F28F123A81DEE14E509CA0004F65C
:100AE000A2E9BADE0DD37EC987C36CBFD2BD5FBD9C
:100AF000ECBCF2BD21C0A1C2E7C52CC929CB6BCB90
:100B00005BCB30CCCBCDE6D1A2D813E0FEE879F4B4
:100B10009800BF0D901C202BA9382C450D4F775500
:100B20002F59FB5A4D5B29583152EB49B13E703277
:100B30006B25D117B80CD001D9F689EFFEE83FE458
:100B40001EE4A8E5B2E95EF04CF72500C509C9111D
:100B5000A41AED20012457275A25421F0919590FBD
:100B60006805DAFB1DF091E4E4D834CFDAC8B8C3E5
:100B700038C107C1AEBFDFBFABC1EAC3CDC67EC9B6
:100B8000D7CAF8CAC0C967C8DAC89CCB97CF66D4A1
:100B9000B0DACFE198EA1EF55D018B0F451D5429AF
:100BA0003C34893DB944A04A804F9E518650EF4C59
:100BB0003246583D1B34CE2A9B201616240C7B034C
:100BC0008FFC8EF779F4B4F3A1F518F9BDFE1D067C
:100BD0005C0DE713791BC3218C2557272627642436
:100BE000A81DE713CB0AFB005FF5B9EA4EDF87D4F7
:100BF00016CDEEC6D3C269C152C007C1E3C26DC4EF
:100C00001FC7D1C95BCBBDCBD7CA12CAC0C985CA61
:100C1000CBCDD5D17BD703E015EAD2F5DE036E123A
:100C20001E210A2FCE3B95469A4E3F541858FE5827
:100C3000015731521C4A1A404335B028BB1BFE0FE6
:100C40006104DDF97CF2D7EC0EE90EE9B0EBFCEFC4
:100C5000D9F6C4FFC5095413C21C6B25AD2A552E05
:100C6000AE2FEF2AC023061BE60EC702FAF6FEE8F7
:100C70003DDAE5CCC2C2FFBACDB511B42BB3D9B2BF
:100C80002BB349B502B916BCF9BEBBC18AC183C03A
:100C900083C0FDC1ACC6C4CC5FD35BDCBFE696F1BC
:100CA000A3FF6A0F111F3B2F693D4749CC53CA5A16
:100CB0001D607A640E655C62095D3853EE47C43C82
:100CC000E02F2C237F174F0BB900C6F86CF293EE80
:100CD00006EFE9F177F695FDEB05CF0D2616AE1E72
:100CE00029250229AD2AF2280B23AD19DD0FBA05FB
:100CF00028F9F1EB5EDFB5D11FC721C0FFBA7FB87D
:100D0000DAB76EB809BA79BC31C02BC4EEC6DAC8FE
:100D1000B9C850C77BC6DDC61CC9B4CCEFD0ACD7B0
:100D200065E046EAB8F61605C71346225230723C13
:100D30008546794E3555EE58D4591858E6528F4AA3
:100D400042419C365B2AB81D4D12E20622FD66F632
:100D500003F13AED6BED1DF079F4DAFBF504010EC9
:100D60008916531FB326BE2A142E872EA729362292
:100D700086180A0DD001A1F549E8D0DA6FCE11C569
:100D8000E2BDA6B91CB899B757B799B775B99ABC5F
:100D9000B8BE31C007C152C086BE55BED5C022C53F
:100DA00085CAE6D185DB3CE652F3D70264131224F0
:100DB0008E34CC42EC4E8B58BB5FAB645D6787666C
:100DC0003B62575AA14F15447B36CA27311A4C0D46
:100DD0007700B8F647EF81E974E70EE985EC83F315
:100DE00002FDDB05590FAD197722E1285F2D872E13
:100DF000622B9F23AD198B0F3A03C2F549E8EBD95B
:100E000030CCEDC1FFBAF4B65AB549B540B636B7E5
:100E100019BA86BE91C2F7C51FC75AC601C5FAC323
:100E200053C5DAC837CD2ED343DB70E489EF64FDB8
:100E3000F30BEC1B312B36381544934D9154FB5A70
:100E4000935E065F965C1B56EF4CFD421F375B2A94
:100E5000CF1EE112900664FD04F63EF07BED30EE0D
:100E600003F1F3F575FD5E06F70EE2170E21262756
:100E7000EF2AD22DB42B6B25451D6E12E20657FBCF
:100E8000FFEDD1DF27D2DDC6F9BE75B950B65AB530
:100E90005AB55AB5F4B6BDBA13BEA4C070C260C28A
:100EA000C5C06CBF52C0C9C3F4C758CDFAD4D4DD95
:100EB0005AE866F6DB052616162708362F43694ED4
:100EC0007457935EB5636065C563205E6755444B98
:100ED000553FF7301B23E4152A088FFC94F333ECBD
:100EE00074E701E72FE9DEED14F64600060A8C14DC
:100EF000111F5727A12D60320433872E7126D21C73
:100F0000A9116104BFF7E4E95EDA89CD87C316BC95
:100F1000FBB70EB68BB56AB5DDB56EB862BB13BE56
:100F200031C021C086BECBBC9ABC97BE1EC292C740
:100F300034CF2FD8F6E2A0F0C4FFDD0F3F21F73009
:100F4000903EFB498A530C5BCB5F9E623B62FF5D28
:100F50008E56104DA441C9334026AD19B80C3C0142
:100F6000E7F8B7F164EC2CEB19ED03F153F822022A
:100F70004F0B7B14211F9927CB2C49311E32802D1A
:100F8000BD25DC1B2F107B0366F6D6E71FD864CA8D
:100F9000C5C096B918B58EB38EB35DB311B4A9B7F9
:100FA00027BC10C0E3C22BC4E3C2F6C031C02EC2BE
:100FB00074C5D1C91AD0BCD713E0C0EB0EFA5209E0
:100FC000621A4B2AB337E3439A4E0157AD5D0A626A
:100FD00042635F60F5596C511847443ACB2C0720A7
:100FE000AF12AA0577FB10F385ECB2E967EAF8ECDB
:100FF00052F3C0FC89056A0FD51A0124EF2AD630B6
:10100000B9334931412BA9224418240CEEFE23F1B7
:10101000BEE12ED3F4C73BBF33B9DDB5B6B464B47B
:1010200001B49CB533B916BC24BE3BBF24BE72BB11
:1010300009BA62BBB1BDBBC178C80AD005D997E572
:1010400038F40F04B31526276B366043DB4E5A582D
:10105000165F28640466D663305E0B56C74B243F88
:101060000731F1237816CE085AFE5FF530EE67EAB5
:10107000E4E912EC09F2B2FAEE037D0D23187722AF
:101080007C2A8430AF34EA33452EDE258A1B9B0F41
:1010900054029AF4E3E487D426C8C8BE99B7BFB314
:1010A00046B260B1EDB0B9B2F4B6ADBAD2BD31C09E
:1010B00052C065BEBABCE2BD07C16DC433CA73D1AC
:1010C00078D91EE42AF2FB006711982238313E3E9F
:1010D000A949F752CA5AB16052637D62BD5D0B5691
:1010E000104DB5412C342627201A660C5D0142F8BC
:1010F000A0F085ECB0EB08ED55F1DDF94A03E90C01
:10110000F217DA22AD2AC5305335433584308F28A3
:10111000E01E011337051BF718E8FED7D7CAD5C064
:1011200033B974B498B246B204B21BB3C3B6EFBAC3
:10113000F2BD31C031C065BECBBCECBC97BEBBC1FB
:101140006AC627CDFAD41DDF54EC57FBB10B141D32
:10115000FC2CB73A8B474252885A766181656065AC
:10116000C8614D5BA452DD47443A582C731F561199
:10117000C40498FBCEF2F8EC4DEB7EEBD4EE77F6A0
:10118000B3FF000964135C1E9927872EEA33E73505
:101190007032412B98226F17580AF1FC51EEC4DDD2
:1011A00065CFAFC416BC71B6BFB3D9B2F3B1D3B17A
:1011B00029B5F1B8A3BB55BE6CBFA0BD93BB30BB76
:1011C00089BC9DBF3CC4D7CABBD25BDCCDE86DF700
:1011D00075073A19E82936386D454550EE581D60B7
:1011E000AB64A16542633A5DE3543D4A273D7D2FE0
:1011F0009822AC14E807B6FD9AF4FFED7EEB4DEBB8
:10120000EEEDBBF4E8FD44079811E21CA326242E62
:101210005D34823743352B2FA326EC1B490F7E010B
:1012200021F3C5E280D381C755BEDAB784B4BFB31A
:1012300098B225B218B5E1B8E5BB2ABF52C00ABFC3
:10124000ECBCA3BBECBC0ABF14C38FC9AED005D99C
:1012500004E5DFF26402E713852415334C40C74BE5
:101260000455545C0A6238643B627C5DC955094C84
:10127000E93F1E326B25F217790A8800BFF7CBEFE2
:10128000A6EC12EC8CEDC5F37EFCAA059B0FA41A0C
:1012900029252E2DE33261370F377A316529531F07
:1012A000221389059EF7D6E7EDD729CB8AC109BA63
:1012B0008BB532B4EAB2F3B111B4DAB7BDBA7FBDBF
:1012C0006CBFD8BE9ABCFFBAD5BBD2BDF6C0DDC6D6
:1012D000FCCD9ED5D8E0A3EE75FD840EC51FFA2E79
:1012E000273DCA49CC53E15B2B626065BC64A060BA
:1012F000F5591A510B4561373A2A2E1C630E080323
:101300006AF903F164ECDAEAB0EBD1F039F954028E
:10131000760CA0176722412B2F3250376838EA33FA
:101320008A2C4D233D17690A7EFC64EC6BDC90CE61
:10133000A8C3B4BBA2B674B48EB325B24CB3E4B6A2
:1013400009BAFCBC4BBF7DBF7FBD20BB41BB0DBDFF
:101350007DBFE0C4BDCBCCD20FDDD3E932F8AD0800
:10136000311AE8292638B9441D4F4357515E11639D
:1013700052632E60575A31523947023A2E2D7A2045
:101380008E121307A6FD48F4D4EE19ED6BED23F190
:10139000F7F81202C20B57168121202B1E32B337E9
:1013A000D1396B36FA2E0F26F61A4C0D72FF5EF00D
:1013B0004EDF5CD001C506BCBCB50BB335B2EDB099
:1013C0001EB1E7B48FB893BB86BE0ABFB1BDA3BB45
:1013D00020BBCBBC2ABFC9C3D7CAD5D112DBA5E776
:1013E00091F578050C1726278535FD42274EF156D5
:1013F000935ED6636065AE627C5D9855024BFC3DA2
:1014000094308E2330152A0819FE69F48CEDFBEA1E
:1014100088EA19ED48F464FD3407FB11551D99273E
:101420006D2FC635A039D4371E323A2A421F8E128C
:101430006805B8F6AFE608D764CA07C1E8B9DDB5F4
:1014400018B55DB335B229B56EB8ADBA5FBD97BEFC
:101450007FBDEFBA96B98CBA58BC10C05AC637CD0A
:10146000AFD55CE116EFBDFE2F106021A530903E98
:10147000A04AFD53F25B0A6269648363165FD75723
:101480009A4ED641FB33A927AD19450C1202A5F897
:1014900090F008ED12ECEEED69F422FD6F063611C6
:1014A000FD1B82267D2F9535333A653A3C34272C37
:1014B00077224015C8078BF9EDE8A2D819CBA4C054
:1014C000E1B843B42BB391B128B0D9B250B602B948
:1014D00079BCC8BE13BE16BCCEBA62BB0DBD62C01D
:1014E000CDC668CDC9D403E03AED0BFC5C0D9E1E61
:1014F000D22D103C61484252885A86614F65DC64A7
:101500007661FB5A6C517E456838412BB81DCC0F73
:1015100030040EFAE2F064EC0BEB3DEB1DF084F8C6
:101520006E015F0BBA160422932B9132B3377F39C9
:10153000C635C82ECD25EF19D90C30FF58EF1DDF69
:1015400021D108C66FBDDAB7CDB532B435B27EB39E
:1015500015B7C7B947BC86BE86BE47BC09BA4ABAEA
:1015600093BBD2BD35C39FC93BD05EDA42E780F55D
:101570005E06F217FC27AC36F4439A4E0858AA5F71
:1015800049644F655C62D85CF4548849833CBF2F42
:10159000F421E7131A08A6FD38F4D4EE95EC54ECC8
:1015A0001DF001F8FB00DC0A16169121622B913226
:1015B000D4375B3B7838F730F228761D6A0FF1019B
:1015C000CEF231E270D350C724BEFBB718B564B475
:1015D00077B266B2FEB5F1B841BB55BE0ABF7FBD5A
:1015E00062BBADBA20BBBABCABC126C8E2CE71D8D3
:1015F000C2E45BF2B6027B144A2501359B42C44D1E
:101600000157625ED663F465F663165F95579D4C8D
:10161000663FED31B6249916E50972FF4FF561EE8C
:10162000E1EB0BEB7BEDBBF419FE75074D12C81D0A
:101630007F28C530DE36D83A863A5D34062CB22192
:101640008C14C10632F8D6E7DDD7B6CAF6C064B945
:101650008BB511B477B2D3B164B499B7ADBA5FBDED
:10166000F9BE13BE93BB8CBAEFBAE5BB31C09BC6C3
:10167000B4CC2BD586E0BDED95FDF70E3820523069
:101680006F3E8F4AB254F85C6363D9660466C861E2
:101690000C5B4C515644DE36D829BB1BF00D85023D
:1016A00042F8BAEF9FEB98EA12EC23F11FFA0F040D
:1016B000110E9D19E724B12D9F348F39A63A9C361F
:1016C0002B2FDE259D19900B4AFED4EE26DE5CD032
:1016D000F7C57FBD3DB871B6D6B45DB3E7B41CB8ED
:1016E0008CBA3EBD2ABFD8BE58BC7CBAADBACEBA01
:1016F0007FBD77C39FC900D1E8DB9BE88EF78D08DB
:10170000831AFF2AF239F8464C51D45924610E65E8
:1017100060657D62965CAB536B47F239FC2CCF1E43
:10172000F4104705B2FAC8F1A6ECFBEA9FEBFCEF18
:1017300074F84302760CE2178E233E2DAF34443A00
:10174000E53C133A9132C7291B1EDD0FE10121F35D
:1017500010E2EDD2EEC6B1BD67B7F7B49EB3F3B1F8
:10176000A8B2BCB502B9D5BB55BE4BBF6FBDFFBA61
:10177000EFBAFFBABABC4FC278C803CF36D924E556
:1017800010F3BD03401571265A36E3431D4F8B58A5
:101790009060F4658E67A165B1608B58104DD93F9C
:1017A0002F3201240516410995FD83F3C7ECA2E908
:1017B00071E995EC62F302FD44071C121B1E8F2891
:1017C000A5301F37863AF2395D34932B3F21391407
:1017D000FC0511F828E8EDD74ACB8AC15BBAC3B63D
:1017E0006AB5D0B3F1B340B675B958BC97BE10C056
:1017F000F9BEE5BBCEBAFFBA30BB9DBFF7C58CCBF7
:1018000056D413E019ED22FDD60E5920C530033F02
:10181000024B6755EF5D49645D6746663B627F5BDF
:10182000A750814329361C289D19970C5700C2F5F3
:1018300020EE25EA40E96EEB23F181FA05058B0FD6
:101840008A1BE4266D2F9C364B3BDE3BF537F02F91
:101850000F26AD19900B95FDFFED93DD65CF5DC4AF
:10186000A3BBC3B6D6B4EAB225B2D0B3B3B6C7B938
:1018700058BC13BEF2BD72BBA6B964B954B958BC0A
:10188000A1C278C84BD085DB5AE89EF7DF08C51A9D
:10189000172C6C3B92483853545C94635D67BF6768
:1018A0009B64625EF454BD47F239272C451DBC0F82
:1018B000BD0332F858EF25EAE7E72FE920EE77F687
:1018C000CA004F0B0C17B922792C1B340C39BE3BC4
:1018D0008F392F32C128761D6A0F7E01CEF252E277
:1018E00070D361C724BE1CB86AB501B40BB301B490
:1018F00081B6C7B9CBBC65BE2ABF7FBD8CBAD7B98C
:1019000096B98CBA52C028C672CCD6D617E3E2F08C
:10191000F101C7135A25C6356043DB4EFE58D2602D
:1019200035665368356645616159EF4C663F1E3236
:10193000EA22FF149D08EAFBE9F1B0EB28E87AE817
:10194000B0EB6CF2AFFC0207A9111B1E6F28C5306B
:101950008237753A333A0135932B60213914AA0541
:1019600032F849E8DDD729CBD5C064B92FB632B4F7
:10197000B9B21BB3D6B4DAB741BB6FBDB8BE13BEA4
:10198000FFBAA6B975B964B9A0BD1BC4D1C99AD2B2
:10199000AADEC0EB1CFCF00DB51F18311A402A4C12
:1019A000AF56BB5FD365F768746838643A5D4252DE
:1019B0002544AC36FC270919240C72FFC5F323EC2F
:1019C000A5E78EE6FEE872EEBFF743020A0D3A196C
:1019D0008524E22DB635D1394B3B05389E2F302674
:1019E000EF193E0BD7FDA3EE26DED8CF8EC4E5BBA4
:1019F000E4B664B40BB3A8B2BFB371B6E8B979BCAE
:101A0000E2BD24BED5BB54B9E1B81CB85BBA83C0F3
:101A100039C6CBCDE4D8A8E5DCF46F0696184B2A7E
:101A2000B73A50483853D85C9B6484689C69D9663F
:101A3000D260A5575E4A103CE22D3B1E7110EE03AA
:101A40005CF7EEED9BE8D9E5CFE64DEB52F35AFE9D
:101A5000CE085A14AB207C2A0433EB38B73A133A39
:101A6000B9339629CF1EC310430279F44FE4B8D49A
:101A700067C865BEFBB749B57EB3D9B28EB38BB527
:101A800023B927BC13BE4BBFE2BDBDBAC7B9F1B87D
:101A9000F1B8E2BD3CC444CAF3D334E030EEEEFE0C
:101AA00036115D239F3460432E4FA2592B628E67FF
:101AB000406AE768D663235CA14F21417733D02386
:101AC00030158D0805FB2DF081E966E5C9E50EE9C5
:101AD00047EFCCF9A3048B0F5F1C57275230B33765
:101AE000753AE83AEE366F2D1B2357168607FEF936
:101AF00067EA1CDAA3CCBBC1D7B9FEB511B41BB3DE
:101B00004CB3B6B4DAB793BBA0BD0ABFC8BEA3BB83
:101B100033B94DB8A9B77CBA94C0ACC624CFD0DADB
:101B200007E832F8380AD21C2B2F033FF84B6457D2
:101B300024618E67366BDA6B11685561BF56504869
:101B4000443AFF2A381B010E9800F6F34DEBA8E546
:101B50000DE44CE60BEB27F440FFC50926160422E2
:101B6000D52B9F341C39863A5E39BC318927C21C7B
:101B7000320ED4FFE9F18DE19AD26AC60DBD88B765
:101B8000B6B48EB35DB311B440B63ABACBBC55BE51
:101B90004BBF3EBD3ABA02B9CAB78FB8E2BDC9C39E
:101BA00085CA0AD59DE15EF0AF017B14262768380F
:101BB000394717537C5DD365E46AB06C926AAB64B5
:101BC000E15B794EC83F1831AB206E1237058EF7B6
:101BD0003AED22E759E31EE4D6E789EFB2FA0505AC
:101BE000F410A81DCA27AB314738133A193B5A36AF
:101BF000792C4622FF14FC0584F8CDE805D9CECB1C
:101C0000D5C0A6B92FB643B49EB301B49CB5E1B814
:101C100047BCD2BD0ABF97BE30BB23B93DB836B76B
:101C20008CBAC5C0CDC665CFB6DBA2E9FEF9A80C5B
:101C3000731F7A3128421D4F155A0764406A446D5C
:101C4000A66DF76876610B56184799386F285518B6
:101C50003E0B43FDD1F0EDE8DCE3B4E266E5B9EA22
:101C6000DCF425001E0BE2178E232E2DF835D1391A
:101C7000A63AEB3894300F26831AB10BA6FD47EF36
:101C80001DDF3BD06DC493BB81B611B42BB35DB3E4
:101C900043B4F4B6FFBAA0BDD8BEF0BF7FBD7CBAD6
:101CA00002B999B7B0B813BEC9C35BCB11D6F6E27F
:101CB0007CF25104CA16092ABE3B3D4A1B56D2602B
:101CC000C668446D106F8F6C6666D85CBB4E973FDC
:101CD0002130421F25119C0380F5C0EB24E5BEE1B5
:101CE0008AE395E737EF25FBEB05A9118D1E8F28B9
:101CF000FD31EB38443A023A1235CE2A07207E12E3
:101D00007B0314F6CFE618D7D1C9AEBFF1B89CB5A6
:101D100001B4BFB3B6B450B664B92DBDD8BEDFBFF1
:101D20007DBFE5BB54B91CB857B7ADBA94C0EEC679
:101D30008DD06BDC98EAEAFB420E60213C34B9445A
:101D4000CF51195D8766B06CA36F726F716A5C6268
:101D50001B56A5468237C42689162009F4FA72EE6E
:101D6000CFE6BEE15CE170E415EA0DF59800C20B28
:101D70002A196424E22D0F37023AB73AEB38F02FD4
:101D80004A25EF199A0AC0FC72EE37DEC8CF2BC481
:101D900041BBB3B632B45DB3F1B3D6B467B741BBA0
:101DA000E2BD2ABFAEBF2DBDD7B90CB881B6A9B769
:101DB000ECBC04C3B6CABFD538E341F34705B71836
:101DC000272C1D3E414D4059F663DA6BE56F4E718D
:101DD0008C6E2C674B5D0D4FE23ED92EA81DF70E81
:101DE0005D0121F371E938E3D1DF00E25DE6C4EE85
:101DF00005FBDB05FB11111FF228C3322D39133A05
:101E0000333A1235D829421FA91154021EF5C9E5EB
:101E1000AFD5EBC897BE0CB818B57EB38EB3B6B4C9
:101E20002FB696B92DBDC8BEF0BF3BBF93BBE1B87E
:101E300036B771B6D7B99DBF28C6A7CF29DCB9EA96
:101E4000EAFBE60E4622223512466953A35E8468F9
:101E50005B6E3E71FC70CA6B8363D056F846613787
:101E6000FE25D4155B086AF919ED56E5D1DFD1DFFF
:101E700027E3EDE89AF42500DC0A441801245F2DDD
:101E8000CD36F239F239F537D92E122496182009B9
:101E900036FB3AEDEEDC90CED3C23ABADDB5BFB335
:101EA000EAB2D0B3E7B488B7A3BBF2BD9DBF31C0DF
:101EB0006FBD09BA4DB850B657B789BC70C264CA75
:101EC0003CD583E2EFF268059618792CC13EF64DB9
:101ED000575A2E65336D6F71F972E56FB668515EB2
:101EE000804F763F0A2F551DB50E2500B7F128E823
:101EF0006CE137DEA7E004E58CED0EFA050515115F
:101F00003B1E7F28FD31EB38D1394E398E3496296E
:101F10005C1EF410AF0106F4E3E40AD526C8F2BD56
:101F200088B774B42BB34CB364B40EB675B90DBD99
:101F3000C8BEAEBFF9BE41BB3DB881B68BB57FB858
:101F400065BE43C5C1CE12DBF4E9DAFBA50E46221D
:101F5000083618479154D260C36A27701A73F97211
:101F6000236DDC6418588B47B337BD25CD14340777
:101F7000E0F77EEB0DE4D4DDD4DDBEE174E7EFF2F3
:101F800072FF270AB0178E230D2D39368F39A039ED
:101F9000F537C82E5D232318AD083FFA85EC5BDCCE
:101FA000DBCDEDC154B9E7B4D9B246B22BB374B4AA
:101FB000E4B6EFBAE2BD3BBFDFBF6FBDC7B9CAB77A
:101FC000CDB571B672BB8AC15EC966D410E27CF22F
:101FD000C40444189A2C243F694E4D5BA8668C6E4D
:101FE000A77252742D711F6ACB5F45501A402B2F78
:101FF000901C9E0D30FF6FF0F0E6A0DF3ADC99DE1A
:10200000C5E223ECE7F84A03DD0F761D26277A3177
:102010004738EB384E391B3402299E1E36119F017A
:1020200048F456E57DD567C813BEA9B784B4EAB2B3
:102030002BB364B4DDB523B9FCBCD8BEAEBF0ABFB8
:1020400041BBDAB740B6F7B488B76FBDC9C337CD67
:10205000CAD9CDE871FA8E0D602153350847355540
:102060001361576BA07163743174106FA866825945
:1020700088491C39A326A3154407CFF76EEB17E355
:102080000FDDADDCF2DF0AE686F175FD8D0847163F
:10209000F421E52B8535A9381C39B337D92E012415
:1020A000B718B40936FB6BEDC4DD24CF04C37CBA8A
:1020B000CDB55DB3EAB2D0B329B557B741BB65BE64
:1020C000AEBFDFBF7FBDC7B967B78BB5BCB53ABA86
:1020D00083C036C870D34BE196F16104F217062C29
:1020E000763FD24FA65C016848709474ED754B73CF
:1020F0004D6CB8615252A4415230C81D320E72FF6D
:10210000B1F05DE60CDF54DBB3DDDFE1B9EA5CF78B
:102110008502D60E5F1CF526D6304738C139EB381C
:102120008E345B2A211F0B12F8021EF53CE695D671
:102130000CC997BE0CB874B42BB31BB364B40EB601
:10214000E1B80DBD3BBF9DBF0ABFB4BB4DB881B662
:1021500029B557B7FCBCA8C3F5CC88D97AE881FA71
:102160009E0D812108361F487E56DF62966D2174D0
:10217000B2769176B1716A69545CB74B193B6F289E
:1021800099161A0884F87EEB17E35BDC85DB2DDFFC
:10219000B2E4CBEF4DFC3407CD141E21AD2A3C3404
:1021A0002D39EB3861371130F824DF19800B8FFCA3
:1021B00016EF03E0EFD0D0C406BCE4B664B4BFB3FE
:1021C00064B4CDB5A9B741BBB8BEBEBF21C045BE42
:1021D00009BA88B76AB518B533B94BBF50C748D2EA
:1021E0007FDF6FF008032616312B243F5F4F195D08
:1021F000C668A0711E76777759758C6E3864255540
:1022000046447032941F8B0FCA00C8F132E75EDF7C
:1022100002DB0FDD4BE160E9D9F6D0017D0D8A1BB1
:102220003026F02FF5378F394E398535BE2AE61F17
:10223000A613300445F628E850D864CA10C0E1B8A7
:1022400049B5F1B3F1B35AB5E4B633B96FBDDFBFE9
:1022500052C0F0BF89BCF1B8B3B6D6B4B3B6E5BBD3
:1022600091C230CC2FD832E718F9D20B3820AF34D6
:1022700018472257B563A66D07752B78EA77DF7389
:10228000DA6BD55E484E9A3DCE2A86187309FEF960
:1022900085EC69E35BDC54DB37DE69E3A3EE25FB09
:1022A00089056413F71F75297733A938A938923740
:1022B000D630DE25D51A970CD7FDB1F0BEE18AD213
:1022C00039C62DBDCAB718B532B4F7B471B61CB84B
:1022D00093BB3BBF62C0D5C0F9BEBDBA3DB8CDB55A
:1022E000E7B48FB886BE08C6CFD006DEA3EE2C01B9
:1022F0007B149629AA3DEC4E3A5D5A69D872C9778B
:102300006379B97780712C674A588B4795352522B8
:1023100056114302CEF295E74EDF5EDA09DCF2DFBA
:1023200074E706F4C4FF030CBE19B624552ECD364F
:10233000A039DB387435792C5021EE14BA059EF79C
:10234000A2E92CDABDCBA4C054B9F7B44CB34CB35A
:1023500074B440B68FB89ABC6CBFF0BFDFBFECBCA2
:1023600054B915B7E7B4FEB5EFBA17C1A6CA95D6EA
:10237000F3E4FAF6E509B81DE332F1450B56526372
:102380002A6EED7522794379CC75196E9761F950F3
:10239000D93FFC2C101A580A57FB4AED8AE33ADC65
:1023A000CAD9DEDC31E295EC39F9300498118D1E82
:1023B0006F282F324738EB389237AB31E4268A1B2F
:1023C000110E30FF76F1C5E280D3ACC65FBD26B7F3
:1023D00064B4D0B374B42FB6DAB7CEBAC8BE62C094
:1023E000A4C03BBF93BB6EB8FEB564B457B7FCBC8A
:1023F0005DC4F2CEF8DBE1EB8CFE000000000000D3
:00000001FF
